:10000000685E002051590000495A0000495A00001A
:1000100000000000000000000000000000000000E0
:100020000000000000000000000000001D040000AF
:1000300000000000000000001D0500006505000034
:10004000495A0000495A0000495A0000E9350000A9
:10005000495A0000495A00003D010000495A000079
:10006000495A00008D3C0000A53C0000BD3C00004A
:10007000D53C0000ED3C0000053D00007D57000030
:1000800091570000A557000035580000495800005E
:100090005D5800007158000085580000D12E000006
:1000A000495A0000495A0000495A0000495A0000C4
:1000B0000000000010B5064C2378002B07D1054B3B
:1000C000002B02D0044800E000BF0123237010BDC4
:1000D0002000002000000000A0850000084B10B5A3
:1000E000002B03D00749084800E000BF0748036819
:1000F000002B00D110BD064B002BFBD09847F9E731
:100100000000000024000020A0850000A085000061
:100110000000000080B500AF024B9847C046BD46C6
:1001200080BDC046D522000080B500AF024B984785
:10013000C046BD4680BDC0462923000080B586B0BC
:1001400000AF494B9847494B1B8C9BB2DAB217233F
:10015000FB180F210A401A701723FB181A78444B1A
:100160009200D3583B61414A3B691B780F210B40F9
:10017000D9B23F23D1543D490F23FB184E228A5C4C
:100180001A703B691B783B4A1B01D31802331B884A
:100190009BB2BB603B691B78374A1B01D318023303
:1001A0001B889BB27B60BA687B68D21A3B695A6134
:1001B0000F23FB181B780122134016D02B4A4E2325
:1001C0000121D1543B6910225A743B691B7C1A00EF
:1001D0000123134042D03B695B68002B3ED03B6952
:1001E0005B683A691000984738E00F23FB181B78CA
:1001F0000222134016D01D4A4E230221D1543B69DE
:1002000000225A743B691B7C1A000223134025D03C
:100210003B699B68002B21D03B699B683A691000C1
:1002200098471BE00F23FB181B780422134015D0BE
:100230000E4A4E230421D1543B6906225A743B696D
:100240001B7C1A000423134008D03B69DB68002B99
:1002500004D03B69DB683A6910009847074B984720
:10026000C046BD4606B080BD1501000000480041F3
:1002700090000020C03C0020400000202901000028
:1002800080B582B000AF78607B6808331A007B6865
:100290005A607B68012252429A607B6808331A00D8
:1002A0007B68DA607B6808331A007B681A617B68B8
:1002B00000221A60C046BD4602B080BD80B582B043
:1002C00000AF78607B6800221A61C046BD4602B06C
:1002D00080BD80B584B000AF786039607B685B68B2
:1002E000FB60FB685A683B685A607B685A683B68E9
:1002F0009A60FB685B683A689A60FB683A685A6083
:100300007B683A685A603B687A681A617B681B6848
:100310005A1C7B681A60C046BD4604B080BD80B5DB
:1003200084B000AF786039603B681B68BB60BB6815
:10033000013303D17B681B69FB600CE07B680833E9
:10034000FB6002E0FB685B68FB60FB685B681A6847
:10035000BB689A42F6D9FB685A683B685A603B68AA
:100360005B683A689A603B68FA689A60FB683A682A
:100370005A603B687A681A617B681B685A1C7B6804
:100380001A60C046BD4604B080BD80B584B000AFE1
:1003900078607B685B687A6892689A607B689B6823
:1003A0007A6852685A607B681B69FB60FB685A6810
:1003B0007B689A4203D17B689A68FB685A607B68C5
:1003C00000221A61FB681B685A1EFB681A60FB68F2
:1003D0001B681800BD4604B080BD80B584B000AF76
:1003E000F860B9607A60FB68043BFB60FB688022C0
:1003F00052041A60FB68043BFB60BA68FB681A6031
:10040000FB68183BFB607A68FB681A60FB68203B5E
:10041000FB60FB681800BD4604B080BD084B19683E
:1004200008681030F0C8A046A946B246BB4680F323
:1004300009882038F0C871460D2001430847C0469E
:10044000443B0020C046C046064A13681868203066
:1004500080F30988022080F314883FBCAE4662B660
:1004600000BDC046443B0020C046C04680B500AF3A
:100470000C4B0C4A1268FF2109040A431A60094B0D
:10048000084A1268FF2109060A431A60064B98477A
:10049000064B00221A60064B984700231800BD4601
:1004A00080BDC04620ED00E0910500000000002066
:1004B0004904000080B500AF054B802252051A6048
:1004C000BFF34F8FBFF36F8FC046BD4680BDC046A0
:1004D00004ED00E080B500AF72B6064B1B685A1CF5
:1004E000044B1A60BFF34F8FBFF36F8FC046BD46FA
:1004F00080BDC0460000002080B500AF064B1B68E1
:100500005A1E054B1A60044B1B68002B00D162B6C3
:10051000C046BD4680BDC04600000020EFF3098004
:100520000E4B1A6820381060F0C044464D465646BF
:100530005F46F0C008B572B600F084FF62B60CBC2E
:10054000116808681030F0C8A046A946B246BB46FC
:1005500080F309882038F0C81847C046443B002083
:10056000C046C04680B582B000AF074B802252051E
:100570001A6000237B6072B6044B984762B6C0468F
:10058000BD4602B080BDC04604ED00E0011300008E
:1005900080B500AF054B00221A60054B054A1A6072
:1005A000054B07221A60C046BD4680BD18E000E03A
:1005B00014E000E03F1F000010E000E080B584B0D0
:1005C00000AF78600023FB607B680722134004D0F3
:1005D0007B680722934308337B60174B9847174B80
:1005E0001B68002B05D1164B072293431A00134BAF
:1005F0001A60144B1A687B68D318134A934213D8B5
:10060000104B1A687B68D2180E4B1B689A420BD9A4
:100610000A4B1A680B4B1B68D318FB60094B1A680E
:100620007B68D218074B1A60084B9847FB68180084
:10063000BD4604B080BDC046A5110000403B00206F
:10064000AC0000203C3B00208F3A0000BD110000B0
:1006500080B582B000AF78607B68002B01D072B6A5
:10066000FEE7C046BD4602B080BD000080B584B044
:1006700000AF786039607B68FB60FB68002B01D1BC
:1006800072B6FEE7244B9847FB681A68FB68D96B83
:10069000FB681B6C4B43D218FB685A60FB68002256
:1006A0009A63FB681A68FB689A60FB681A68FB68C3
:1006B000DB6B591EFB681B6C4B43D218FB68DA607E
:1006C000FB68012252425A64FB68012252429A643A
:1006D0003B68002B0ED1FB681B69002B14D0FB6814
:1006E000103318000D4B98470300012B0CD10C4B15
:1006F000984709E0FB68103318000A4B9847FB68DD
:1007000024331800074B9847074B984701231800DC
:10071000BD4604B080BDC046D5040000BD15000034
:10072000B504000081020000F904000080B588B023
:1007300000AFF860B960FB1D1A700023FB61FB6815
:10074000002B2CD050201B4B98470300BB61BB698A
:10075000002B24D0FB68BA68534301337B617B696B
:100760001800144B98470200BB691A60BB691B68EC
:10077000002B10D0BB69FA68DA63BB69BA681A64E7
:10078000BB69012118000C4B9847BB690022DA6451
:10079000BB69FB6103E0BB691800084B9847FB6924
:1007A000002B01D172B6FEE7FB691800BD4608B008
:1007B00080BDC046BD0500006D060000510600006A
:1007C00080B588B000AFF860B9607A603B60002304
:1007D000FB61FB68BB61BB69002B01D172B6FEE710
:1007E000BB68002B03D1BB691B6C002B01D101231B
:1007F00000E00023002B01D172B6FEE7444B98477E
:10080000BB699A6BBB69DB6B9A4227D23A68B968BD
:10081000BB6918003F4B9847BB69DB6C002B0BD0C2
:100820003A68BB69110018003B4B98470300012B45
:1008300010D13A4B98470DE0BB695B6A002B09D099
:10084000BB6924331800364B98470300012B01D1B4
:10085000324B9847334B9847012355E07B68002B78
:1008600003D1304B984700234EE0FB69002B06D1A3
:100870001023FB1818002C4B98470123FB61294BD0
:1008800098472A4B9847224B9847BB695B6C0133CA
:1008900002D1BB6900225A64BB699B6C013302D14F
:1008A000BB6900229A641F4B98473A1D1023FB181E
:1008B000110018001E4B9847031E1ED1BB6918007B
:1008C0001C4B9847031E11D0BB6910337A68110086
:1008D0001800194B9847BB691800184B9847184BDC
:1008E0009847031E8AD10D4B984787E7BB691800CC
:1008F000124B9847124B984780E7BB6918000F4B83
:1009000098470F4B984700231800BD4608B080BD9C
:10091000D5040000E90B0000950E0000B5040000AE
:10092000BD150000F904000075160000A5110000B7
:10093000A9160000F50D0000DD140000F90C000000
:10094000BD11000080B588B000AFF860B9607A6072
:100950003B60FB68BB61BB69002B01D172B6FEE74F
:10096000BB68002B03D1BB691B6C002B01D1012399
:1009700000E00023002B01D172B6FEE700237B616B
:1009800072B6BB699A6BBB69DB6B9A4237D23A6825
:10099000B968BB6918001E4B9847BB699B6C013353
:1009A00025D1BB69DB6C002B0FD03A68BB69110005
:1009B0001800184B98470300012B1DD17B68002BB2
:1009C0001AD07B6801221A6016E0BB695B6A002BB3
:1009D00012D0BB69243318000F4B9847031E0BD06D
:1009E0007B68002B08D07B6801221A6004E0BB6999
:1009F0009B6C5A1CBB699A640123FB6101E00023D4
:100A0000FB6162B6FB691800BD4608B080BDC046F8
:100A1000E90B0000950E0000BD15000080B58AB0FE
:100A200000AFF860B9607A603B6000237B62FB68CE
:100A30003B623B6A002B01D172B6FEE7BB68002B1C
:100A400003D13B6A1B6C002B01D1012300E0002382
:100A5000002B01D172B6FEE7554B98473B6A9B6B62
:100A6000002B3CD03B6ADB68FB61BA683B6A110033
:100A70001800504B98473B68002B1CD13B6A9B6B7E
:100A80005A1E3B6A9A633B6A1B68002B04D14A4B8F
:100A9000984702003B6A5A603B6A1B69002B1AD0D8
:100AA0003B6A10331800454B98470300012B12D1C5
:100AB000434B98470FE03B6AFA69DA603B6A5B6A2E
:100AC000002B08D03B6A243318003C4B9847031E88
:100AD00001D03B4B98473B4B9847012363E07B6831
:100AE000002B03D1374B984700235CE07B6A002B37
:100AF00006D11423FB181800334B984701237B625F
:100B0000304B9847314B9847294B98473B6A5B6C71
:100B1000013302D13B6A00225A643B6A9B6C013369
:100B200002D13B6A00229A64264B98473A1D14234F
:100B3000FB1811001800264B9847031E2CD13B6A66
:100B40001800244B9847031E1FD03B6A1B68002BDC
:100B500008D1174B98473B6A5B6818001E4B9847B3
:100B6000184B98473B6A24337A68110018001B4BD6
:100B700098473B6A18001A4B98471A4B9847031E30
:100B800000D069E70E4B984766E73B6A1800144BA4
:100B90009847144B98475FE73B6A1800104B9847FB
:100BA000104B984700231800BD460AB080BDC046D0
:100BB000D5040000A90C0000291A0000BD15000092
:100BC000B5040000F904000075160000A51100002E
:100BD000A9160000C10D00007D1A0000DD14000000
:100BE000F90C0000BD11000080B584B000AFF860C2
:100BF000B9607A60FB681B6C002B0CD1FB681B682A
:100C0000002B43D1FB685B681800254B9847FB68B5
:100C100000225A603AE07B68002B19D1FB68986883
:100C2000FB681A6CBB6819001E4B9847FB689A68F2
:100C3000FB681B6CD218FB689A60FB689A68FB68BB
:100C40005B689A4222D3FB681A68FB689A601DE0D1
:100C5000FB68D868FB681A6CBB681900114B984791
:100C6000FB68DA68FB681B6C5B42D218FB68DA60D1
:100C7000FB68DA68FB681B689A4207D2FB685A680F
:100C8000FB681B6C5B42D218FB68DA60FB689B6BED
:100C90005A1CFB689A63C046BD4604B080BDC0467E
:100CA000311B00009D82000080B582B000AF7860EB
:100CB00039607B681B68002B18D07B68DA687B681A
:100CC0001B6CD2187B68DA607B68DA687B685B68CB
:100CD0009A4203D37B681A687B68DA607B68D968BC
:100CE0007B681A6C3B681800024B9847C046BD46AB
:100CF00002B080BD9D82000080B582B000AF7860F8
:100D00002A4B984720E07B68DB6C002B0AD07B687D
:100D100000211800264B98470300012B0FD1254BCB
:100D200098470CE07B685B6A002B12D07B68243309
:100D30001800214B9847031E01D01E4B98477B6833
:100D40009B6C5A1E7B689A647B689B6C002BDADC78
:100D500000E0C0467B68012252429A64174B9847D4
:100D6000124B984711E07B681B69002B12D07B68FF
:100D700010331800104B9847031E01D00D4B9847B5
:100D80007B685B6C5A1E7B685A647B685B6C002BCB
:100D9000E9DC00E0C0467B68012252425A64074BFE
:100DA0009847C046BD4602B080BDC046D50400008D
:100DB000950E000051170000BD150000F904000059
:100DC00080B584B000AF7860084B98477B689B6B18
:100DD000002B02D10123FB6001E00023FB60044BE8
:100DE0009847FB681800BD4604B080BDD5040000DC
:100DF000F904000080B584B000AF7860094B9847D3
:100E00007B689A6B7B68DB6B9A4202D10123FB60A3
:100E100001E00023FB60044B9847FB681800BD46C7
:100E200004B080BDD5040000F904000080B584B092
:100E300000AF786039607B68FB60124B9847FB68B5
:100E40005B6C013302D1FB6800225A64FB689B6C27
:100E5000013302D1FB6800229A640B4B9847FB6870
:100E60009B6B002B06D1FB6824333A6811001800F5
:100E7000064B9847FB681800054B9847C046BD468F
:100E800004B080BDD5040000F90400005D15000029
:100E9000F90C000080B584B000AF786039607B68E1
:100EA000DB6CBB600023FB60BB68002B01D172B61A
:100EB000FEE7BB689A6BBB68DB6B9A4201D372B6E4
:100EC000FEE7BB689A6BBB68DB6B9A4212D23A684A
:100ED000391DBB6818000A4B9847BB685B6A002B3A
:100EE00008D0BB6824331800064B9847031E01D076
:100EF0000123FB60FB681800BD4604B080BDC046FE
:100F0000E90B0000BD15000090B58BB002AFF86092
:100F1000B9603B60BB1D1A80FB68002B01D172B623
:100F2000FEE73B6B042B01D972B6FEE7BA6BBB1D23
:100F30001B8811001800514B98470300BB61BB6927
:100F4000002B00D182E0BB691A6BBB1D1B884C498A
:100F50008C4663449B00D3187B617B6907229343D3
:100F60007B617B690722134001D072B6FEE7FC6B00
:100F70003A6BB968B869BB1D1B8800932300414CCC
:100F8000A0473A68F9687B6918003F4B9847020010
:100F9000BB691A60BB691B681A000723134001D0A4
:100FA00072B6FEE77B6B002B02D07B6BBA691A60CE
:100FB000364B9847364B1B685A1C354B1A60354BDD
:100FC0001B68002B09D1334BBA691A60304B1B6880
:100FD000012B0FD1304B98470CE0304B1B68002B96
:100FE00008D12C4B1B68DA6A3B6B9A4202D8294B1A
:100FF000BA691A60BB69DA6A294B1B689A4203D93D
:10100000BB69DA6A264B1A60264B1B685A1C254BB3
:101010001A60BB69DA6A244B1B689A4203D9BB6920
:10102000DA6A214B1A60BB69DA6A13009B009B18CD
:101030009B001E4A9A18BB690433190010001C4B10
:1010400098470123FB611B4B984702E001235B4259
:10105000FB61FB69012B0BD1104B1B68002B07D0E8
:101060000C4B1B68DA6A3B6B9A4201D2124B9847D1
:10107000FB691800BD4609B090BDC0468919000043
:10108000FFFFFF3F8D170000DB030000D5040000C9
:101090001C3C0020443B0020011800002C3C002098
:1010A000243C0020403C0020283C0020483B0020FD
:1010B000D3020000F9040000B504000080B584B03C
:1010C00000AF78600023FB607B68002B14D00F4BCF
:1010D00098470F4B1A687B68D318BB600D4B1B6891
:1010E000043318000C4B9847BB6818000B4B98470B
:1010F0000B4B98470300FB60FB68002B01D1094BA9
:101100009847C046BD4604B080BDC046A51100004A
:10111000203C0020443B00208B03000019190000F4
:10112000BD110000B504000090B587B004AF1649AA
:101130001648002303930023029300230193002306
:10114000009300236422124CA04703007B607B685D
:10115000012B03D10F4B984703007B607B68012B69
:1011600009D172B60C4B01221A600C4B00221A6096
:101170000B4B984704E07B68002B01D172B6FEE769
:10118000C046BD4603B090BDE88200006517000070
:10119000090F0000B51B00002C3C0020203C002063
:1011A0006D04000080B500AF034B1B685A1C024B56
:1011B0001A60C046BD4680BD303C002090B583B06B
:1011C00000AF00237B60354B1B68002B01D172B64A
:1011D000FEE7334B9847314B1B685A1E2F4B1A6062
:1011E0002E4B1B68002B52D12E4B1B68002B4ED070
:1011F00000233B6027E02C4BDB68DC6823001833BE
:1012000018002A4B9847231D1800284B9847E26A7C
:10121000274B1B689A4202D9E26A254B1A60E26AA0
:1012200013009B009B189B00224A9B18221D110053
:101230001800214B9847E26A204B1B68DB6A9A42F0
:1012400001D301233B60184B1B68002BD3D11C4BEF
:101250001B68002B0DD006E01A4B9847184B1B68F3
:101260005A1E174B1A60164B1B68002BF4D1012332
:101270003B603B68012B03D0134B1B68012B06D14D
:1012800001237B60104B00221A60104B9847104BD3
:1012900098477B681800BD4603B090BD303C0020E5
:1012A000D50400001C3C0020DC3B00208B03000028
:1012B000283C0020483B0020D3020000443B002093
:1012C000343C002001130000383C0020B50400002D
:1012D000F904000080B582B000AF064B9847064B7A
:1012E0001B687B60054B98477B681800BD4602B0C1
:1012F00080BDC046D5040000203C0020F904000059
:1013000080B584B000AF444B1B68002B00D079E05F
:10131000424B1B685A1C414B1A60404B1B68002B08
:1013200028D13F4B1B681B68002B01D072B6FEE72B
:101330003B4B1B68FB603B4B1A68394B1A60394BBF
:10134000FA681A60384B1B685A1C374B1A60344BCA
:101350001B681B68002B04D1344B012252421A60D7
:1013600008E02F4B1B68DB68DB68BB60BB685A6812
:101370002E4B1A60294B1A682C4B1B689A4247D394
:10138000274B1B681B68002B04D1284B01225242BB
:101390001A603DE0224B1B68DB68DB68BB60BB6802
:1013A0005B687B601D4B1A687B689A4203D21F4BB7
:1013B0007A681A602CE0BB68043318001C4B98470D
:1013C000BB689B6A002B04D0BB6818331800184B0D
:1013D0009847BB68DA6A174B1B689A4203D9BB6807
:1013E000DA6A144B1A60BB68DA6A13009B009B1818
:1013F0009B00114A9A18BB680433190010000F4B68
:101400009847BDE70E4B1B685A1C0D4B1A60FFE74F
:10141000C046BD4604B080BD303C0020203C0020CA
:10142000D43B0020D83B00203C3C0020040000209E
:101430008B030000283C0020483B0020D302000022
:10144000343C002080B582B000AF1F4B1B68002BDE
:101450000ED01E4B01221A6032E01D4B1B68002B80
:1014600001D172B6FEE71A4B1B685A1E184B1A6060
:10147000174B1A68174913009B009B189B005B5879
:10148000002BEAD0124B1A6813009B009B189B009C
:10149000104A9B187B607B685B685A687B685A605F
:1014A0007B685A687B6808339A4204D17B685B6822
:1014B0005A687B685A607B685B68DA68064B1A601A
:1014C000C046BD4602B080BD303C0020383C002004
:1014D000283C0020483B0020443B002080B584B0DD
:1014E00000AF786039607B68002B01D172B6FEE7EF
:1014F000134B1B6818331A007B6811001800114B3E
:1015000098470F4B1B68043318000F4B98473B68F4
:10151000013308D10A4B1B681A1D0C4B110018002F
:101520000B4B984708E00B4B1A683B68D318FB60DD
:10153000FB681800084B9847C046BD4604B080BD04
:10154000443B00201F0300008B030000083C0020E8
:10155000D3020000203C00201919000080B584B09F
:1015600000AF786039607B68002B01D172B6FEE76E
:101570000D4B1B6818331A007B68110018000B4BC9
:101580009847094B1B6804331800094B9847094BCF
:101590001A683B68D318FB60FB681800064B984735
:1015A000C046BD4604B080BD443B0020D3020000CD
:1015B0008B030000203C00201919000080B584B086
:1015C00000AF78607B68DB68DB68BB60BB68002BC2
:1015D00001D172B6FEE7BB68183318001E4B98475E
:1015E0001E4B1B68002B1DD1BB68043318001A4B1F
:1015F0009847BB68DA6A1A4B1B689A4203D9BB68E2
:10160000DA6A174B1A60BB68DA6A13009B009B18F2
:101610009B00144A9A18BB68043319001000124B3F
:10162000984707E0BB6818331A00104B11001800E8
:101630000D4B9847BB68DA6A0D4B1B68DB6A9A4210
:1016400002D30123FB6001E00023FB60FB6818006C
:10165000BD4604B080BDC0468B030000303C002076
:10166000283C0020483B0020D3020000DC3B002047
:10167000443B002080B582B000AF78607B68002BCF
:1016800001D172B6FEE7064B1A687B681A60054BFB
:101690001A687B685A60C046BD4602B080BDC0462D
:1016A0003C3C0020203C002080B584B000AF786036
:1016B00039607B68002B01D172B6FEE73B68002BD6
:1016C00001D172B6FEE71D4B98473B681B6801339A
:1016D00002D10023FB602AE07B681A68184B1B6864
:1016E0009A4208D07B685A68164B1B689A4202D807
:1016F0000123FB601BE0134B1A687B685B68D21AFE
:101700003B681B689A4210D20E4B1A687B685B6874
:10171000D21A3B681B689A1A3B681A607B681800EB
:10172000094B98470023FB6001E00123FB60074B56
:101730009847FB681800BD4604B080BDD504000082
:101740003C3C0020203C002075160000F9040000FD
:1017500080B500AF024B01221A60C046BD4680BD75
:10176000383C002080B582B000AF7860044B9847C9
:10177000044B1B68012BF9D9034B9847F6E7C04689
:101780008D180000483B0020B504000080B584B0EF
:1017900000AFF860B9607A603B60FB683433B968C9
:1017A00008221800144B9847FB683B2200219954EB
:1017B0007B68042B01D904237B60FB687A68DA62BA
:1017C000FB687A68DA63FB68043318000B4B9847B0
:1017D000FB6818331800094B9847FB68FA681A61D0
:1017E0007B680522D21AFB689A61FB68FA685A6224
:1017F000C046BD4604B080BDBF820000BD020000EF
:1018000080B582B000AF00237B600CE07A681300E3
:101810009B009B189B00144A9B181800134B984779
:101820007B6801337B607B68042BEFD9104B180079
:101830000E4B98470F4B18000C4B98470E4B180057
:101840000A4B98470D4B1800084B98470C4B180053
:10185000064B98470B4B064A1A600B4B054A1A6019
:10186000C046BD4602B080BD483B0020810200005A
:10187000AC3B0020C03B0020DC3B0020F03B0020C4
:10188000083C0020D43B0020D83B002080B582B02B
:1018900000AF27E0174B9847174B1B685A4253413C
:1018A000DBB27B60154B98477B68002B1AD1144B39
:1018B0009847114BDB68DB683B603B6804331800DA
:1018C000104B9847104B1B685A1E0F4B1A600F4B5A
:1018D0001B685A1E0D4B1A600D4B98473B68180049
:1018E0000C4B9847094B1B68002BD3D1C046BD4613
:1018F00002B080BDA5110000F03B0020BD1100002A
:10190000D50400008B0300001C3C0020043C002098
:10191000F9040000011A000080B582B000AF7860C1
:10192000134B1B687A685A60124B1B687A689A429C
:1019300009D2114B1A680E4B1B68043319001000B2
:101940000E4B984710E00E4B1A68094B1B68043386
:1019500019001000094B98470A4B1B687A689A4295
:1019600002D2084B7A681A60C046BD4602B080BDFC
:10197000443B0020203C0020D83B00201F030000F7
:10198000D43B00200400002080B584B000AF0200EA
:101990003960BB1D1A804020164B98470300FB603E
:1019A000FB68002B21D03B68002B07D1BB1D1B8897
:1019B0009B0018000F4B9847020000E03A68FB6854
:1019C0001A63FB681B6B002B06D1FB6818000A4BDF
:1019D00098470023FB6008E0FB68186BBB1D1B8861
:1019E0009B001A00A521054B9847FB681800BD46CF
:1019F00004B080BDBD05000051060000AF820000AC
:101A000080B582B000AF78607B681B6B1800054B17
:101A100098477B681800034B9847C046BD4602B004
:101A200080BDC0465106000080B582B000AF044BB7
:101A30001B687B607B681800BD4602B080BDC04655
:101A4000443B002080B582B000AF0A4B1B68002BDE
:101A500002D100237B6008E0074B1B68002B02D1FA
:101A600001237B6001E002237B607B681800BD4698
:101A700002B080BD2C3C0020303C002080B584B0FA
:101A800000AF78607B68FB607B68002B41D0FB680F
:101A9000DA6A224B1B68DB6A9A423AD21F4B1B68F8
:101AA000DB6A0522D21AFB689A61FB685969FB68F8
:101AB000DA6A13009B009B189B00194A9B189942F5
:101AC00022D1FB6804331800164B9847134B1B6850
:101AD000DA6AFB68DA62FB68DA6A134B1B689A42BF
:101AE00003D9FB68DA6A104B1A60FB68DA6A1300E4
:101AF0009B009B189B000A4A9A18FB680433190044
:101B000010000A4B984704E0044B1B68DA6AFB6834
:101B1000DA62C046BD4604B080BDC046443B0020EA
:101B2000483B00208B030000283C0020D30200002B
:101B300080B584B000AF78607B68FB607B68002B69
:101B40002CD0FB68DA6AFB68DB6B9A4226D0FB6814
:101B500004331800134B9847FB68DA6BFB68DA62B2
:101B6000FB68DB6A0522D21AFB689A61FB68DA6AB5
:101B70000D4B1B689A4203D9FB68DA6A0A4B1A605C
:101B8000FB68DA6A13009B009B189B00074A9A18AF
:101B9000FB68043319001000054B9847C046BD464A
:101BA00004B080BD8B030000283C0020483B00208F
:101BB000D302000090B587B004AF00237B60104BC8
:101BC0009847104B1B68002B0FD00F490F4800237C
:101BD0000393002302930023019302230093002325
:101BE00050220B4CA04703007B607B68002B01D187
:101BF00072B6FEE77B681800BD4603B090BDC046D4
:101C0000DD200000743C0020F0820000311D000047
:101C1000090F000090B589B000AFF860B9607A6034
:101C20003B600023FB611E4B1B68002B33D010234D
:101C3000FB18BA681A601023FB187A685A601023E0
:101C4000FB18FA689A603B68002B1AD1154B98472D
:101C50000300012B0AD1124B18683A6B1023F918B4
:101C60000023114CA0470300FB6114E00C4B1868E3
:101C70001023F918002300220B4CA0470300FB613E
:101C800009E0074B18683A681023F9180023074C3D
:101C9000A0470300FB61FB691800BD4609B090BD79
:101CA000743C0020451A0000C107000045090000EF
:101CB00090B587B002AF78603960194B1B68DB685C
:101CC000DB68FB60FB6804331800164B9847FB6821
:101CD000DB69012B1AD1FB689A697B68D1187B6894
:101CE0003A68F868104CA0470300012B0ED17A68BF
:101CF000F86800230093002300210C4CA047030048
:101D0000BB60BB68002B01D172B6FEE7FB685B6A63
:101D1000FA6810009847C046BD4605B090BDC04661
:101D20006C3C00208B0300007D1E0000151C000091
:101D300080B584B000AF78600823FB181800064B0C
:101D400098470300FB60BA68FB6811001800034B5A
:101D50009847034B9847EFE7ED1D0000651D000015
:101D6000051F000080B584B000AF78603960184B63
:101D700098470823FB181800164B98470300FB6090
:101D8000BB68002B1ED13B68002B0CD17A68FB6826
:101D90009A4208D8104B9847FA687B6811001800DF
:101DA0000E4B984710E00E4B18687A68FB68D31A00
:101DB00019000C4B9847084B9847031E04D10A4B57
:101DC000984701E0044B9847C046BD4604B080BD2B
:101DD000A51100002D1E0000BD110000B11C000067
:101DE000743C00202D0E0000B504000080B584B0C6
:101DF00000AF78600C4B1B681B685A425341DBB242
:101E00001A007B681A607B681B68002B05D1064BA3
:101E10001B68DB681B68FB6001E00023FB60FB685C
:101E20001800BD4604B080BD6C3C002080B584B075
:101E300000AF78600E4B98470300FB600D4B1B68AA
:101E4000FA689A4208D20B4B1B6818000A4B984755
:101E50007B6801221A6002E07B6800221A60054B51
:101E6000FA681A60FB681800BD4604B080BDC04621
:101E7000D5120000783C00201920000080B586B003
:101E800000AFF860B9607A603B6000237B61FB685B
:101E9000BA685A60FB68FA681A61BA687B689A4245
:101EA00012D87A683B68D21AFB689B699A4202D3BF
:101EB00001237B611BE0104B1A68FB680433190097
:101EC00010000E4B984712E07A683B689A4206D29F
:101ED000BA683B689A4202D301237B6107E0084B52
:101EE0001A68FB68043319001000044B98477B699B
:101EF0001800BD4606B080BD703C00201F030000E6
:101F00006C3C002090B58BB002AF68E00823FB1852
:101F10009B68FB61FB695B69002B04D0FB690433A0
:101F20001800364B98473B1D1800354B9847030067
:101F3000BB610823FB181B68012B50D002DC002B6F
:101F400005D04BE0022B2FD0032B42D046E00823D4
:101F5000FB185A68FB699B69D1180823FB185B685A
:101F6000BA69F869274CA0470300012B37D1FB69F8
:101F70005B6AFA6910009847FB69DB69012B2ED177
:101F80000823FB185A68FB699B69D218F86900237B
:101F90000093002300211C4CA04703007B617B6958
:101FA000002B1CD172B6FEE70823FB185A68FB69A8
:101FB0009A61FB699B69002B01D172B6FEE7FB6950
:101FC0009A69BB69D118BB69BA69F8690D4CA04719
:101FD00005E0FB6918000D4B984700E0C0460C4B2C
:101FE00018680823F918002300220A4CA047031E92
:101FF0008CD1C046BD4609B090BDC0468B030000E1
:102000002D1E00007D1E0000151C00005106000062
:10201000743C00201D0A000090B58BB002AF7860C0
:102020003EE0294B1B68DB681B68FB61264B1B6885
:10203000DB68DB68BB61BB6904331800234B98473E
:10204000BB695B6ABA6910009847BB69DB69012B01
:1020500026D1BB699A69FB69D3187B617A69FB69F0
:102060009A420ED9BB697A695A60BB69BA691A612A
:10207000154B1A68BB69043319001000144B9847BC
:102080000EE0FA69B8690023009300230021114C87
:10209000A04703003B613B69002B01D172B6FEE70C
:1020A000094B1B681B68002BBBD1074B1B68FB60EF
:1020B000094B1A68044B1A60074BFA681A60C0464D
:1020C000BD4609B090BDC0466C3C00208B030000AB
:1020D0001F030000151C0000703C002080B500AFFD
:1020E000104B9847104B1B68002B15D10F4B180055
:1020F0000F4B98470F4B18000D4B98470E4B0B4A50
:102100001A600E4B0B4A1A6000220C2102200C4B65
:1021100098470200044B1A600A4B9847C046BD46D8
:1021200080BDC046D5040000743C0020443C002023
:1021300081020000583C00206C3C0020703C0020D4
:102140002D070000F904000080B584B000AF020044
:10215000FB1D1A700F23FB18FA1D1278D2091A7092
:102160000E23FB18FA1D127852091A700D4BBB6032
:102170000F23FB181B78002B0FD10F23FB181B78A4
:102180009B0010229446BC446344083B1A680E230B
:10219000FB181B78DB01D31800E000231800BD46B4
:1021A00004B080BD0044004180B582B000AF0200A1
:1021B000FB1D1A70FB1D1B781800034B984703008A
:1021C0001800BD4602B080BD4921000080B582B034
:1021D00000AF78607B6800221A707B6801225A7019
:1021E0007B6800229A70C046BD4602B080BD0000E8
:1021F00080B584B000AF0200FB1D1A70BB1D0A1C25
:102200001A70FB1D1B7818000D4B98470300FB60EC
:10221000FB1D1B781F22134001229A401300BB6054
:10222000BB1D1B78002B03D0FB68BA689A6102E0E3
:10223000FB68BA685A61C046BD4604B080BDC0465E
:10224000A921000080B582B000AF3B1D18001E4BD5
:1022500098473B1D01221A703B1D190008201B4B9B
:1022600098473B1D19000920184B98473B1D190042
:102270000A20164B98473B1D19002120134B984705
:1022800000212120124B98473B1D190022200F4BA3
:102290009847002122200E4B98473B1D1900232010
:1022A0000A4B984700212320094B98473B1D1900F2
:1022B0002420064B984700212420054B9847C04610
:1022C000BD4602B080BDC046CD2100000D2F0000EC
:1022D000F121000080B582B000AF104B1B68002BCD
:1022E00012D1EFF310837B607B68002B09D172B6AB
:1022F000BFF35F8F0A4B00221A700A4B01221A703B
:1023000002E0084B00221A70044B1B685A1C034B56
:102310001A60C046BD4602B080BDC0467C3C00206D
:1023200008000020803C002080B500AF0B4B1B68EC
:102330005A1E0A4B1A60094B1B68002B0AD1084B26
:102340001B78DBB2002B05D0064B01221A70BFF3BD
:102350005F8F62B6C046BD4680BDC0467C3C002053
:10236000803C00200800002080B584B000AF02004F
:10237000FB1D1A700F23FB18FA1D1278D2091A7070
:102380000E23FB18FA1D127852091A700D4BBB6010
:102390000F23FB181B78002B0FD10F23FB181B7882
:1023A0009B0010229446BC446344083B1A680E23E9
:1023B000FB181B78DB01D31800E000231800BD4692
:1023C00004B080BD0044004180B582B000AF02007F
:1023D000FB1D1A70FB1D1B781800034B9847030068
:1023E0001800BD4602B080BD6923000080B582B0F0
:1023F00000AF78607B6800221A707B6801225A70F7
:102400007B6800229A70C046BD4602B080BD0000C5
:1024100080B584B000AF0200FB1D1A70BB1D0A1C02
:102420001A70FB1D1B7818000D4B98470300FB60CA
:10243000FB1D1B781F22134001229A401300BB6032
:10244000BB1D1B78002B03D0FB68BA689A6102E0C1
:10245000FB68BA685A61C046BD4604B080BDC0463C
:10246000C923000080B582B000AF3B1D18000E4BA1
:1024700098473B1D01221A703B1D19003E200B4B53
:10248000984701213E200A4B98473B1D00221A70B5
:102490003B1D01225A703B1D19000F20034B98472A
:1024A000C046BD4602B080BDED2300000D2F0000E8
:1024B0001124000080B582B000AF78607B680022F4
:1024C0001A70C046BD4602B080BD000080B582B023
:1024D00000AF02003960FB1D1A70FB1D1B78012B39
:1024E0000AD0022B0FD0002B14D10E4B0D4A91694C
:1024F0003A680A439A610FE00A4B0A4AD1693A687E
:102500000A43DA6108E0074B064A116A3A680A434F
:102510001A6201E0172300E000231800BD4602B054
:1025200080BDC0460004004080B582B000AF786036
:102530007B6880221A707B6800225A707B680122B7
:102540009A707B680022DA70C046BD4602B080BD3A
:1025500080B582B000AF0200FB1D1A70FB1D1B7816
:10256000002B02D0012B07D00DE0084B074A126C5C
:1025700002210A431A6406E0044B044A126C042147
:102580000A431A64C046BD4602B080BD0008004040
:1025900080B584B000AF78607B681B68FB60FB6827
:1025A0005B7EDBB25BB2002B01DA012300E000238B
:1025B0001800BD4604B080BD80B582B000AF786021
:1025C0007B6800221A707B6800225A707B680022A8
:1025D0005A807B6800221A717B6800221A767B6819
:1025E00000221A627B680022DA617B6800229A600E
:1025F0007B6800221A737B68C0225201DA817B68F3
:1026000000221A747B6800225A747B6800229A7434
:102610007B680022DA747B6800221A757B682A22A4
:10262000002199547B6800225A757B6800229A75B4
:102630007B682422002199547B680022DA847B681D
:1026400000221A857B680022DA757B682B22002124
:1026500099547B682C2200219954C046BD4602B093
:1026600080BD000080B598B000AF78600C23FA18E8
:10267000154B1000190050231A00144B9847144BA7
:10268000FB657B68132B1AD80C23FB187A68920021
:10269000D358FB650823FB1818000E4B98470823F6
:1026A000FB1800229A700823FB1801221A70FB6D98
:1026B000DBB20822BA1811001800074B9847C04631
:1026C000BD4618B080BDC046F88200009D82000063
:1026D000FFFF000029250000F5560000F0B589B085
:1026E00000AF786039601F23FB1800221A70102396
:1026F000BB611723FB1800221A707B681B683B61C3
:102700000C23FB181800CE4B98473B681A780C2313
:10271000FB181A700C23FB1819001E20C94B984790
:102720001E20C94B98473B682C229B5C002B40D055
:102730001623FB183A682B21525C1A703B68197BF0
:102740001523FB181622BA1812788A181A703B68DB
:102750002C22995C0F23FB181522BA1812788A18BC
:102760001A7018E01623FB181B780F2213403A68E2
:10277000127B9B181800B54B98471523FB181A7845
:102780001523FB1801321A701623FB181A7816232A
:10279000FB1801321A701523FA180F23FB18127850
:1027A0001B789A42DED33B68DB891800A74B984719
:1027B00009E03B681B7B1800A44B98473B68DB890A
:1027C0001800A24B98473B685B7D9B00DAB23B69DF
:1027D0001A703B689B7DDB015AB23B685B785BB249
:1027E00013435BB2DAB23B695A703B681B79342BF6
:1027F00046D89A00964BD3181B689F461F23FB1898
:102800003A68527C1A701723FB183A68127C1A70C7
:102810001023BB6136E01F23FB1801221A70172317
:10282000FB1802221A701023BB612BE01F23FB1838
:1028300002221A701723FB1804221A701023BB619E
:1028400020E01F23FB1801221A701723FB18062211
:102850001A701023BB6115E01F23FB1800221A70A9
:102860001723FB1808221A701023BB610AE03023DB
:10287000BB6107E02023BB6104E00023BB6101E0F2
:102880001723AEE11F23FB181B781B01DBB270225C
:102890001340DAB21723FB181B781343DAB23B69F3
:1028A0009A703B68DB7D3F2B01D9172399E13B6888
:1028B000DA7D3B69DA70C0467B681800654B984743
:1028C000031EF9D13B685A88BB699BB213439AB285
:1028D0003B6824215B5C9BB2DB009BB213439AB242
:1028E0003B681B7D9BB29B009BB213439AB23B6833
:1028F0009B7C9BB2DB189BB213439AB23B68DB7C98
:102900009BB213439AB23B699A803B681B7E002BB3
:1029100000D1C4E0BB69102B00D176E002D8002BB7
:102920004DD0BCE0202B23D0302B00D0B7E03B684B
:10293000DB7C002B11D03B68DB697F2B0BDC3B6819
:10294000DB69803307DB3B681B6A7F2B03DC3B685A
:102950001B6A803301DA172343E13B68DB69FF2BF5
:1029600004DC3B681B6AFF2B00DC91E0172338E195
:102970003B68DB7C002B15D03B68DB69364A934211
:102980000EDC3B68DB69354A934209DB3B681B6A16
:10299000314A934204DC3B681B6A304A934201DAB5
:1029A00017231EE13B68DB692D4A934205DC3B6837
:1029B0001B6A2B4A934200DC6CE0172311E13B6851
:1029C000DB7C002B15D03B68DB69264A93420EDC8A
:1029D0003B68DB69244A934209DB3B681B6A214A56
:1029E000934204DC3B681B6A1F4A934201DA1723B7
:1029F000F7E03B68DB691D4A934204DC3B681B6AD5
:102A00001A4A934248DD1723EBE03B68DB7C002B3E
:102A100032D03B68DB69164A93420EDC3B68DB69C7
:102A2000144A934209DB3B681B6A114A934204DC57
:102A30003B681B6A0F4A93421EDA1723D1E0C04657
:102A4000B5240000095400004D5400006526000024
:102A50004883000091250000FF01000000FEFFFFF9
:102A6000FF030000FF07000000F8FFFFFF0F00005A
:102A7000FF7F00000080FFFF3B68DB695B4A9342F9
:102A800004DC3B681B6A594A934207DD1723A8E020
:102A9000C04604E0C04602E0C04600E0C046C04672
:102AA0007B681800524B9847031EF9D13B681A7E89
:102AB0003B691A72C0467B6818004D4B9847031E4D
:102AC000F9D13B68DB699AB23B699A83C0467B685F
:102AD0001800474B9847031EF9D13B681B6A9AB20E
:102AE0003B691A841423FB183A682C21525C1A7033
:102AF0001423FB181B78002B06D01423FB181A781C
:102B00001423FB18013A1A701423FB181B780F2B9F
:102B100004D83B682B229B5C0F2B01D9172360E064
:102B2000C0467B681800324B9847031EF9D13B68BA
:102B30009B683A682B21525C120513431422BA1881
:102B40001278120413433A68D28913433A68127B0D
:102B50001A433B691A613B682A229A5C3B691A75E1
:102B60003B690F229A753B6824229B5C002B1ED088
:102B70003B68DB8C1F4A934201D9172331E03B6845
:102B8000DA8C3B699A843B6828229B5E1A4A9342FE
:102B900005DC3B6828229B5E184A934201DA172322
:102BA0001FE03B6828229B5E9AB23B69DA84144B93
:102BB0001B68DB089BB21B029AB2E023DB001340C8
:102BC0009AB2104B5C681B686101DD0E0D43E60E86
:102BD000ABB2FF210B409BB213439AB23B691A85FB
:102BE00000231800BD4609B0F0BDC046FFFF00003D
:102BF00091250000FF0F0000FF07000000F8FFFF15
:102C0000246080002060800080B586B000AFF8604E
:102C1000B9607A60FB68BA681A6080235B021900A9
:102C20000220324B9847BB681B78DBB21A000123A5
:102C3000134001D0052355E0BB681B78DBB21A00B6
:102C40000223134001D01C234CE07B685A78FB68B8
:102C50001A71FB681B79002B02D10120244B984785
:102C60001723FB1800221A700EE01723FB181A789E
:102C7000FB68023292000021D1501723FB181A780A
:102C80001723FB1801321A701723FB181B78022B2D
:102C9000EBD9FB6800229A76FB680022DA76FB68A3
:102CA00000221A83FB6800221A77124BFA681A6016
:102CB0007B682A229B5C002B0AD17B681B7D01224A
:102CC0005340DBB2002B03D0FB6801225A7702E0AD
:102CD000FB6800225A777A68FB6811001800064BDF
:102CE000984703001800BD4606B080BDCD24000003
:102CF00051250000103D0020DD26000080B584B085
:102D000000AF78607B681B68FB60FB685B7EDBB2B2
:102D10005BB2002B01DA012300E000231800BD465E
:102D200004B080BD80B584B000AF78607B681B685C
:102D3000FB60C0467B6818000B4B9847031EF9D117
:102D4000FB681B7BDBB202221343DAB2FB681A7307
:102D5000C0467B681800044B9847031EF9D1C04653
:102D6000BD4604B080BDC046FD2C000080B584B0D7
:102D700000AF78600A00FB1C1A707B681B68FB6060
:102D8000FB68FA1C12789A75C046BD4604B080BD37
:102D900080B584B000AF0200FB1D1A70FB1D1A78CD
:102DA000474B9200D358FB60FB681B681B7EDAB26E
:102DB000FB681B68DB7DDBB21340DBB2BB60BB682A
:102DC0000122134045D0FB681B6801221A76C046D9
:102DD000FB6818003B4B9847031EF9D1FB685B6901
:102DE000991CFA685161FA681268528B92B21A8083
:102DF000FB681B8B9BB2013B9BB2FA68191C1183C9
:102E0000002B08D0FB685B7F002B22D0FB681800EA
:102E10002D4B98471DE0FB68012118002B4B98476C
:102E2000FB681B7FDBB2052B13D1FB6800221A77EE
:102E3000FB68DB7E1A00012313400AD0FB689B7EEF
:102E40001A000123134004D0FB689B68FA68100045
:102E50009847BB680422134014D0FB681B68042207
:102E60001A76FB68DB7E1A00022313400AD0FB6847
:102E70009B7E1A000223134004D0FB68DB68FA68CB
:102E800010009847BB680222134014D0FB681B68EF
:102E900002221A76FB68DB7E1A00042313400AD054
:102EA000FB689B7E1A000423134004D0FB681B6957
:102EB000FA6810009847C046BD4604B080BDC046C1
:102EC000103D0020FD2C0000252D00006D2D000080
:102ED00080B500AF0020024B9847C046BD4680BD7C
:102EE000912D000080B582B000AF78607B688022B1
:102EF0001A707B6800225A707B6801229A707B6886
:102F00000022DA70C046BD4602B080BD80B584B0F4
:102F100000AF02003960FB1D1A700C23FB1818006B
:102F2000104B98470C23FB1880221A703B681A78C4
:102F30000C23FB185A703B685A780C23FB189A70C4
:102F40003B689A780C23FB18DA700C23FA18FB1DE7
:102F50001B7811001800044B9847C046BD4604B0CA
:102F600080BDC046E52E0000F556000080B582B059
:102F700000AF78607B6800221A70C046BD4602B080
:102F800080BD000080B582B000AF02003960FB1D3B
:102F90001A70FB1D1B78012B0AD0022B0FD0002BBF
:102FA00014D10E4B0D4A91693A680A439A610FE0B9
:102FB0000A4B0A4AD1693A680A43DA6108E0074BCA
:102FC000064A116A3A680A431A6201E0172300E0D0
:102FD00000231800BD4602B080BDC046000400407A
:102FE00080B582B000AF0200FB1D1A70064BFA1DBF
:102FF000127811001F220A40012191400A001A6034
:10300000C046BD4602B080BD00E100E080B582B0A0
:1030100000AF0200FB1D1A70074AFB1D1B78190048
:103020001F230B40012199400B0019008023D15030
:10303000C046BD4602B080BD00E100E080B584B06E
:1030400000AF78607B681B68FB60FB689B7ADBB233
:103050005BB2002B01DA012300E000231800BD461B
:1030600004B080BD80B584B000AF78607B681B6819
:10307000FB6003200A4B9847C0467B681800094B49
:103080009847031EF9D1FB681B889BB202221343A9
:103090009AB2FB681A80C046BD4604B080BDC046E7
:1030A000E12F00003D30000080B584B000AF7860B3
:1030B0007B681B68FB6003200D4B9847C0467B680C
:1030C00018000C4B9847031EF9D1FB68C1229A7176
:1030D000FB68C1221A72FB681B889BB202229343D1
:1030E0009AB2FB681A80C046BD4604B080BDC04697
:1030F0000D3000003D30000080B584B000AF786036
:103100007B681B68FB607B6818000D4B98477B68E9
:1031100000229A827B680022DA82C0467B6818000F
:10312000084B9847031EF9D1FB681B889BB201220C
:1031300013439AB2FB681A80C046BD4604B080BDF6
:10314000A93000003D30000080B584B000AF786049
:1031500039607B681B68BB603B681A88BB681A8053
:103160003B689B78002B3AD0012B00D06CE0BB6809
:103170001B889AB2BB681A803B68DB78002B07D0AB
:10318000BB681B889BB2802213439AB2BB681A802B
:103190000F23FB1800221A701BE0C0467B68180042
:1031A000374B9847031EF9D10F23FB181A783B6859
:1031B00002329200D1580F23FB181A787B6818004E
:1031C000304B98470F23FB181A780F23FB18013256
:1031D0001A700F23FB181B78002BDED036E0BB687B
:1031E0001B889BB2042213439AB2BB681A803B68C7
:1031F000DB78002B01D017233EE00E23FB180022C2
:103200001A701BE0C0467B6818001D4B9847031ED0
:10321000F9D10E23FB181A783B6802329200D1587C
:103220000E23FB181A787B681800164B98470E235C
:10323000FB181A780E23FB1801321A700E23FB18A4
:103240001B78012BDED901E0172315E03B681B79C1
:10325000002B10D0BB685B889BB28022D201134345
:103260009AB2BB685A80BB685B889BB2064A13431C
:103270009AB2BB685A8000231800BD4604B080BDD6
:103280003D3000007D3300000080FFFF80B586B038
:1032900000AFF860B9607A60FB68BA681A602021F4
:1032A0000020174B98471423FB181800154B98471C
:1032B0001423FB1802221A701423FB18190004208F
:1032C000114B98470420114B9847FB681800104B8E
:1032D00098477B689A78FB681A717B681A79FB6853
:1032E0005A710C4BFA681A607A68FB681100180072
:1032F000094B984703001800BD4606B080BDC04684
:10330000852F00006D2F0000095400004D5400006F
:10331000F9300000143D00204931000080B584B030
:1033200000AF786039607B681B68FB60C0467B68D3
:103330001800104B9847031EF9D17B681B79002BAE
:1033400005D0012B0ED1FB683A681A610CE03B688E
:10335000094A934201D9172307E03B689AB2FB68F8
:103360001A8201E0172300E000231800BD4604B0D4
:1033700080BDC0463D300000FFFF000080B586B034
:1033800000AFF860B960FB1D1A70FB681B687B61B9
:10339000C046FB6818001A4B9847031EF9D1FB681A
:1033A0001B79002B0FD0012B22D1FB1D1B78012B89
:1033B00001D917231FE0FB1D1A787B6906329200A2
:1033C000B968D15016E0FB1D1B78022B01D91723D9
:1033D00011E0BB680B4A934201D917230BE0FB1D98
:1033E0001A78BB6899B27B690C325200D15201E065
:1033F0001A2300E000231800BD4606B080BDC04679
:103400003D300000FFFF000080B586B000AFF860DF
:10341000B960FB1D1A701723FB1800221A70FB1DE0
:103420001B78022B04D11723FB1800221A701FE00F
:10343000FB681B79002B0AD0012B11D1FB1D1B78D7
:10344000012B12D91723FB1817221A700DE0FB1D50
:103450001B78022B0BD91723FB1817221A7006E0D2
:103460001723FB1817221A7002E0C04600E0C0467E
:103470001723FB181B78002B15D1FB1D1A78FB684E
:1034800002329200B968D150FB689B8A9BB21AB293
:10349000FB1D1B78012199400B001BB213431BB28B
:1034A0009AB2FB689A821723FB181B781800BD4656
:1034B00006B080BD80B584B000AF78600A00FB1C08
:1034C0001A707B681B68FB60FB1C1B78022B03D106
:1034D000FB688022DA710AE0FB1C1B7801229A400B
:1034E0001300DBB203221340DAB2FB68DA717B68A7
:1034F000DB8A9BB21AB2FB1C1B78012199400B009E
:103500001BB213431BB29AB27B68DA82C046BD4637
:1035100004B080BD80B586B000AF7860314B7A686A
:103520009200D3587B617B691B683B610E23FB18BB
:103530007A69D28A1A807B699B8A9AB20E23FB1819
:103540000E21791809880A401A803B691B7ADAB281
:103550000C23FB181A803B69DB79DBB29AB20C238F
:10356000FB180C21791809880A401A800C23FB18D3
:103570001B88802213400CD00E23FB181B880422CA
:10358000134002D07B691B6998473B6980221A72FD
:1035900024E00C23FB181B88012213400CD00E23BF
:1035A000FB181B880122134002D07B699B68984757
:1035B0003B6901221A7211E00C23FB181B880222BE
:1035C00013400BD00E23FB181B880222134002D09D
:1035D0007B69DB6898473B6902221A72C046BD4688
:1035E00006B080BD143D002080B500AF0020024B26
:1035F0009847C046BD4680BD1535000080B582B0F5
:1036000000AF78607B6800221A70C046BD4602B0E9
:1036100080BDF0B58DB000AFB860F9603A607B60F6
:10362000002300243B627C6200230024BB61FC6118
:103630003F23FB6253E0FB6A203B002B04DB0122AB
:103640009A4013007B610BE0FB6A2022D31A01220F
:10365000DA4013000021FA6A91400A0013437B61AB
:103660000122FB6A9A4013003B61BB69FC69DB18CD
:103670006441BB61FC61BB683A691A401500FB6894
:103680007A691A4016002B00334307D0BB69012228
:103690001343BB61FB6900221343FB617A68FB693A
:1036A0009A4219D87A68FB699A4203D13A68BB6991
:1036B0009A4211D8B969FA693B687C68C91AA24173
:1036C0000B001400BB61FC613A6A3B6913433B6227
:1036D0007A6A7B6913437B62FB6A013BFB62FB6A8C
:1036E000002BA8DA3B6A7C6A18002100BD460DB0A9
:1036F000F0BD80B586B000AFF860B9607A6016237F
:10370000FB1800221A80BB683B61BB685A08FB6843
:103710009A4201D2402326E0BB685B083B610AE085
:103720003A69FB68D31A3B611623FB181A881623E3
:10373000FB1801321A803A69FB689A42F0D21623CC
:10374000FB181622BA181288013A1A801623FB18A1
:103750001B88FF2B01D9402305E07B681622BA188D
:1037600012881A8000231800BD4606B080BD0000F4
:10377000F0B5A1B000AFF864B9647A644322BA1816
:103780001370002300243B677C6700230024BB6682
:10379000FC6600230024BB67FC6700237B6658237C
:1037A00040229446BC4463441A78FB6C5A43BB6C79
:1037B0009A4201D94023B3E04323FB181B78002B26
:1037C0003DD1582340229446BC4463441B78DBB26D
:1037D0003B6100237B61FB6CBB600023FB60524CB0
:1037E000BA68FB6838697969A04703000C001B00C0
:1037F000FB650023BB65BB6C3B6000237B60B86D41
:10380000F96D3A687B68494CA04703000C003B67A0
:103810007C67002101223B6F7C6FC91AA2410B001B
:103820001400BB66FC66BB6E1B0CFA6E16041E43CE
:10383000BB6E1D043300BB670023FB676AE04323B4
:10384000FB181B78012B65D1FB6C3B6300237B636A
:10385000582340229446BC4463441B78DBB2BB62CD
:103860000023FB62304CBA6AFB6A386B796BA04765
:1038700003000C00BB65FC65BB6C3B6200237B62F4
:10388000BB6DFC6D1A002300386A796A274CA0478B
:1038900003000C007B667A6E80239B019A4201D95B
:1038A00040233DE0BB6CBB610023FB61B969FA6951
:1038B0000B005B0F1000C000F863F86B1843F8634F
:1038C0000B00DB00BB63BB6DFC6D1A002300B86B03
:1038D000F96B164CA04703000C00BB65FC65BB6D83
:1038E000FC6DD9B27B6EDBB2DB00DAB2172340206D
:1038F0008446BC4463448A1A1A70172340229446B3
:10390000BC4463441B785B031A007B6E1343BB67A4
:103910000023FB67BB6FFC6F9AB27B6C1A8000239D
:103920001800BD4621B0F0BD417A000013360000FA
:1039300080B584B000AF0200FB1D1A70BB1D0A1CCD
:103940001A701A4B1B7801225340DBB2002B03D1B3
:10395000BB1D1B78002B1BD00C23FB181800144B2D
:1039600098470C23FB18FA1D12781A700C23FB18C9
:10397000190013200F4B984713200F4B98470B4B00
:10398000FA1D12785A70094B01221A70002308E0C0
:10399000064B5B78FA1D12789A4201D1002300E0B1
:1039A0001D231800BD4604B080BDC046843C0020E5
:1039B000FD350000095400004D54000080B582B070
:1039C00000AF78600A00FB1C1A707B684D4A934276
:1039D0003FD04C4A934206D84B4A93420FD04B4AB1
:1039E000934221D089E04A4A934200D15BE0494AA0
:1039F000934200D16CE0484A93423FD07DE0FB1CEB
:103A00001B78012B0AD002DC002B05D075E0022BBD
:103A100006D0032B06D070E0404B6FE0404B6DE0CA
:103A2000404B6BE0404B69E0FB1C1B78012B0AD03C
:103A300002DC002B05D060E0022B06D0032B06D061
:103A40005BE003235AE0394B58E0394B56E0394BE1
:103A500054E0FB1C1B78012B0AD002DC002B05D0A4
:103A60004BE0022B06D0032B06D046E0324B45E05C
:103A7000324B43E0324B41E0324B3FE0FB1C1B78C2
:103A8000012B0AD002DC002B05D036E0022B06D039
:103A9000032B06D031E02C4B30E02C4B2EE02C4B8E
:103AA0002CE02C4B2AE0FB1C1B78012B0AD002DCFB
:103AB000002B05D021E0022B06D0032B06D01CE002
:103AC000254B1BE0254B19E0254B17E0254B15E056
:103AD000FB1C1B78012B0AD002DC002B05D00CE06C
:103AE000022B06D0032B06D007E01F4B06E01F4B2E
:103AF00004E01F4B02E01F4B00E000231800BD460E
:103B000002B080BD0010004200080042000C0042DC
:103B100000180042001C0042001400420300040090
:103B20000300050003000600030007000300010076
:103B300003001E0003001F0003000800030009002B
:103B400003000A0003000B00030010000300110033
:103B5000030012000300130003000C0003000D001B
:103B600003000E0003000F000300160003001700FF
:103B7000030018000300190090B58BB000AF786007
:103B80000C23FB180F4A13CA13C313CA13C3002311
:103B90007B620EE00C23FB187A6A9200D3581A005D
:103BA0007B689A4202D17B6ADBB206E07B6A013312
:103BB0007B627B6A052BEDD900231800BD460BB054
:103BC00090BDC0461C84000080B582B000AF0200EA
:103BD000FB1D1A70C046BD4602B080BD80B584B0E2
:103BE00000AF02003960FB1D1A70134B1B780122D5
:103BF0005340DBB2002B15D00023FB600CE00F4BD1
:103C0000FA6892000E49D1500E4BFA6892000021DA
:103C1000D150FB680133FB60FB68052BEFD9064BE5
:103C200001221A70FB1D1A78044B92003968D1509A
:103C3000C046BD4604B080BD863C0020883C0020C4
:103C4000C93B0000183D002090B585B000AF7860FA
:103C50000823FB180B4A1168196092889A800F2379
:103C6000FC187B681800084B9847030023700F234B
:103C7000FB181B780822BA18D35C5BB21800BD464B
:103C800005B090BD34840000793B000080B500AFE2
:103C9000034B1B6800209847C046BD4680BDC04608
:103CA000883C002080B500AF034B5B68012098473B
:103CB000C046BD4680BDC046883C002080B500AFF0
:103CC000034B9B6802209847C046BD4680BDC04656
:103CD000883C002080B500AF034BDB680320984789
:103CE000C046BD4680BDC046883C002080B500AFC0
:103CF000034B1B6904209847C046BD4680BDC046A3
:103D0000883C002080B500AF034B5B6905209847D5
:103D1000C046BD4680BDC046883C002080B582B00C
:103D200000AF78607B6800221A70C046BD4602B0C2
:103D300080BD000080B582B000AF02003960FB1D7D
:103D40001A70FB1D1B78012B0AD0022B0FD0002B01
:103D500014D10E4B0D4A91693A680A439A610FE0FB
:103D60000A4B0A4AD1693A680A43DA6108E0074B0C
:103D7000064A116A3A680A431A6201E0172300E012
:103D800000231800BD4602B080BDC04600040040BC
:103D900080B582B000AF78607B6880221A707B6843
:103DA00000225A707B6801229A707B680022DA70C8
:103DB000C046BD4602B080BD80B500AF054B9B78C4
:103DC000DBB21A00022313405A1E9341DBB21800E3
:103DD000BD4680BD0020004180B584B000AF786052
:103DE0007B681B68FB60FB68DB695A1E9341DBB292
:103DF0001800BD4604B080BD80B582B000AF7860C9
:103E0000C0467B681800044B9847031EF9D1C04692
:103E1000BD4602B080BDC046D93D0000B0B58CB0F3
:103E200002AF786039607B681B68BB617B681B6888
:103E30001800A94B984703007B617B6914333B61F1
:103E400000237B6200233B620A23FB1800221A80B6
:103E50001F23FB1800221A701E23FB1810221A7051
:103E60003B681B8A8022D20193421CD08022D2015F
:103E7000934206DC002B0DD080229201934224D085
:103E800035E0C022D201934228D080221202934210
:103E900012D02CE01F23FB1800221A701E23FB18DF
:103EA00010221A7023E01F23FB1800221A701E2311
:103EB000FB1808221A701AE01F23FB1800221A7040
:103EC0001E23FB1803221A7011E01F23FB18012286
:103ED0001A701E23FB1810221A7008E01F23FB180B
:103EE00001221A701E23FB1808221A70C0463B6874
:103EF0001A683B68DB681A433B685B6913433A689E
:103F0000128A13433A68127E120213433A6826213A
:103F1000525C520713437B621D23FB1800221A7068
:103F20003B685B68FB60FB68002B1ED0802252055B
:103F300093424FD13B6827229B5C01225340DBB266
:103F4000002B46D03B681D6A3B69DBB21800634B0F
:103F5000984701001D23FC180A23FB181A002800AB
:103F60005F4B98470300237033E03B6827229B5C3C
:103F7000002B14D03B68186A3B68996A1D23FC1813
:103F80001F23FB181D780A23FA181E23FB181B7821
:103F900000932B00534DA847030023701AE03B68A1
:103FA0001D6A3B69DBB218004C4B98471D23FC1877
:103FB0001F23FB1819780A23FA181E23FB181B78F5
:103FC00000930B0001002800464DA8470300237012
:103FD00000E0C0461D23FB181B78002B03D01D23D7
:103FE000FB181B7873E03B685B7E002B03D03B68BB
:103FF0009A7EBB699A730A23FB181A88BB699A8157
:104000007A6AFB6813437B623B6827229B5C012230
:104010005340DBB2002B03D07B6A042213437B6244
:104020003B685B7E9A023B681B7F5B021A433B68DE
:104030005B7F1B021A433B6824215B5C5B041A43D1
:104040003B6825215B5C1B0413433B623B689B7A06
:104050001A003B6A13433B623B68DB7A1A003B6AF7
:1040600013433B623B681B89FF2B0BD07B6A80228A
:10407000520413437B623B681B891A003B6A13435B
:104080003B6208E03B68DB7E002B04D07B6A802229
:10409000D20413437B623B682C229B5C002B03D130
:1040A000114B9847031E03D07B6A802213437B6227
:1040B0007B6818000D4B9847BB693A6A5A607B6869
:1040C00018000A4B9847BB697A6A1A6000231800E7
:1040D000BD460AB0B0BDC046793B00002D5500007A
:1040E000F336000071370000B93D0000F93D0000D3
:1040F00090B593B000AFF860B9607A603B23FB18CD
:1041000000221A70FB68BA681A60FB681B687B6340
:10411000FB681B681800864B984703003B633B6BAA
:104120000233FB623B6B1433BB627B6B1B68012267
:10413000134001D00523F6E07B6B1B68022213407D
:1041400001D01C23EFE00122FB6A9A401300190002
:104150000220784B98472423FB181800764B984789
:104160007B682D229A5C2423FB181A70BB6ADBB291
:104170002422BA1811001800704B9847BB6ADBB2B2
:1041800018006F4B98477B682D229B5C002118001C
:104190006C4B98477B68DA7AFB685A717B682422FB
:1041A0009A5CFB689A717B6825229A5CFB68DA71DD
:1041B0007B68DA7EFB681A727B681A7FFB685A722A
:1041C0003B23FC187A68FB68110018005E4B984787
:1041D000030023703B23FB181B78002B03D03B23E9
:1041E000FB181B789FE02023FB181800574B9847BB
:1041F0002023FB1800225A702023FB1800229A70FB
:104200007B681A6B1023FB181A607B685A6B1023AB
:10421000FB185A607B689A6B1023FB189A607B68C6
:10422000DA6B1023FB18DA604723FB1800221A70A0
:104230002CE04723FB181A781023FB189200D35860
:104240003B643B6C002B09D14723FB181A78BB68F1
:10425000110018003E4B984703003B643B6C013350
:104260000DD03B6CDAB22023FB181A703B6C1B0C90
:10427000DBB22022BA1811001800364B98474723AA
:10428000FB181A784723FB1801321A704723FB18D2
:104290001B78032BCDD90023FB630AE0FA68FB6B84
:1042A00002339B00D318043300221A60FB6B0133E6
:1042B000FB63FB6B052BF1D9FB6800229A62FB685C
:1042C00000225A62FB680022DA85FB6800229A8588
:1042D000FB68302200219954FB6831220021995457
:1042E000FB68322200219954FB6833220021995443
:1042F000FB681B682722BC1818000D4B9847030069
:104300002370154A2723FB181B7811001800134B44
:1043100098472723FB181A78114B9200F968D1505F
:104320003B23FB181B781800BD4613B090BDC04658
:10433000793B0000353D00001D3D000009540000A0
:104340004D540000313900001D3E0000913D000039
:10435000BD390000F556000031450000DD3B00008E
:10436000183D002080B584B000AF78600A00BB1C07
:104370001A807B681B68FB607B68DB7901225340F5
:10438000DBB2002B01D01C2313E07B68DB8D9BB2DA
:10439000002B01D005230CE0FB68BA1C12881A859B
:1043A000C046FB681B7EDBB21A0002231340F8D024
:1043B00000231800BD4604B080BD000080B500AFEA
:1043C000024B9847C046BD4680BDC046D52200007E
:1043D00080B500AF024B9847C046BD4680BDC04681
:1043E0002923000080B584B000AF78607B681B682B
:1043F000FB60FB68DB695A1E9341DBB21800BD46C7
:1044000004B080BD80B582B000AF7860C0467B68E4
:104410001800044B9847031EF9D1C046BD4602B0B0
:1044200080BDC046E543000080B586B000AFF860AF
:10443000B960BB1D1A80FB681B687B61164B9847EF
:10444000FB689B8D9BB2002B03D0144B9847052330
:104450001EE0FB68BA1D12889A85104B9847FB68CE
:10446000BA685A62FB683222052199547B6904229A
:104470009A75FB681B7A002B02D07B6920229A7503
:10448000FB685B7A002B02D07B6908229A750023B7
:104490001800BD4606B080BDBD430000D1430000FA
:1044A00080B584B000AFF860B960FB1D1A70FB1DC9
:1044B0001B78FA6802339B00D3180433BA681A6079
:1044C000FB6830229B5C5AB2FB1D1B78012199408E
:1044D0000B005BB213435BB2D9B2FB683022995434
:1044E000C046BD4604B080BD80B584B000AFF86062
:1044F000B960BB1D1A80BB1D1B88002B01D117237F
:1045000010E0FB689B7901225340DBB2002B01D005
:104510001C2307E0BB1D1A88B968FB681800034B11
:10452000984703001800BD4604B080BD2944000030
:1045300080B588B000AF0200FB1D1A70FB1D1A7811
:10454000A34B9200D358BB61BB691B687B61BB69FD
:104550001800A04B98477B691B7EDAB21223FB1828
:104560001A807B699B7DDBB29AB21223FB18122161
:10457000791809880A401A80BB6930229B5CBA69A5
:104580003121525C1340DAB21023FB181A80122337
:10459000FB181B880122134044D0BB69DB8D9BB202
:1045A000002B3CD0BB699B6A1B78DAB21C23FB183A
:1045B0001A80BB699B6A5A1CBB699A62BB695B79AA
:1045C000012B13D1BB699B6A1B78DBB21B021AB2A9
:1045D0001C23FB1800215B5E13431AB21C23FB183B
:1045E0001A80BB699B6A5A1CBB699A621C23FB1820
:1045F0001B88DB05DB0D9AB27B691A85BB69DB8DF5
:104600009BB2013B9BB2BA69191CD185002B09D121
:104610007B6901221A757B6902229A7502E07B6927
:1046200001221A751223FB181B880222134011D095
:104630007B6902221A75BB69332200219954102329
:10464000FB181B880122134004D0BB69DB68BA69E0
:10465000100098471223FB181B880422134000D136
:10466000BDE0BB699B8D9BB2002B00D1B4E07B69A0
:104670005B8B9BB2DAB21F23FB183F210A401A70F2
:104680001F23FB181B780822134007D01F23FB1899
:104690001F22BA18127808218A431A701F23FB18A8
:1046A0001B78002B50D01F23FB181B7802221340CD
:1046B00007D0BB6932221A2199547B6902225A839E
:1046C00036E01F23FB181B780422134007D0BB6978
:1046D00032221E2199547B6904225A8328E01F2329
:1046E000FB181B780122134007D0BB69322213212B
:1046F00099547B6901225A831AE01F23FB181B7807
:104700001022134007D0BB693222422199547B69A1
:1047100010225A830CE01F23FB181B782022134021
:1047200006D0BB693222412199547B6920225A83E9
:104730001023FB181B880422134050D0BB695B690F
:10474000BA69100098474AE07B691B8D9AB20E2324
:10475000FB18D205D20D1A80BB695B6A0E22BA180B
:104760001288D2B21A70BB695B6A5A1CBB695A6262
:10477000BB695B79012B0DD1BB695B6A0E22BA184C
:104780001288120A92B2D2B21A70BB695B6A5A1CC2
:10479000BB695A62BB699B8D9BB2013B9BB2BA69F4
:1047A000191C9185002B1AD17B6904221A75BB69EB
:1047B0003222002199541023FB181B880222134037
:1047C0000DD0BB691B69BA691000984707E0C04665
:1047D000183D0020054400007B6904221A7512234D
:1047E000FB181B881022134010D07B6910221A7509
:1047F0007B6910221A761023FB181B8810221340A5
:1048000004D0BB69DB69BA69100098471223FB1812
:104810001B882022134010D07B6920221A757B69E7
:1048200020221A761023FB181B880822134004D07C
:10483000BB699B69BA69100098471223FB181B8853
:104840000822134010D07B6908221A757B69082260
:104850001A761023FB181B882022134004D0BB6952
:104860001B6ABA6910009847C046BD4608B080BDB3
:1048700080B582B000AF78607B6801225A607B68A7
:1048800000225A707B6806221A707B6800221A7216
:104890007B6800225A72C046BD4602B080BD80B51A
:1048A00082B000AF78607B6800221A707B680422B7
:1048B0005A707B6800229A707B68802212029A608C
:1048C0007B680022DA707B6801221A717B68002203
:1048D0001A737B6801225A737B6800229A73C04660
:1048E000BD4602B080BD80B582B000AF78607B6805
:1048F00001225A707B6801229A707B680022DA706C
:104900007B6801221A717B6807221A707B6800227B
:104910005A71C046BD4602B080BD80B582B000AFBE
:1049200078607B6803221A707B6800225A707B686B
:1049300001229A70C046BD4602B080BD80B582B0EB
:1049400000AF0200FB1D1A70034AFB1D1B78137297
:10495000C046BD4602B080BD0004004080B582B0B4
:1049600000AF0200FB1D1A70BB1D0A1C1A70FB1D54
:104970001B78012B08D0022B0BD0002B0ED10B4A39
:10498000BB1D1B7853720BE0084ABB1D1B7893724A
:1049900006E0064ABB1D1B78D37201E0172300E036
:1049A00000231800BD4602B080BDC0460004004090
:1049B00080B582B000AF0200FB1D1A70084AFB1DD3
:1049C0001B780F210B40D9B253680F2001404900DA
:1049D0001E2083430B435360C046BD4602B080BDDA
:1049E0000040004180B500AFC046044BDB68102298
:1049F0001340FAD0C046BD4680BDC0460008004006
:104A000080B500AF0C4B02229A840C4B98470A4A9F
:104A10000B4B9B68D362084A094B5B689362064B59
:104A200000229A84054B9847034A054B1B689BB2AA
:104A30009384C046BD4680BD00080040E5490000A3
:104A4000A03C002080B582B000AF0200FB1D1A70B0
:104A5000FB1D1B78082B41D89A00234BD3181B68E9
:104A60009F46224B1B693AE0214B1B6A9B059B0F1B
:104A7000DBB21A001F4BD34031E080231B022EE033
:104A800080231B022BE0194B5B6928E0174B1B6846
:104A90000222134001D1002321E0174B9847134B0A
:104AA0001B6824221340042B09D10020134B984784
:104AB00002000E4B9B681B041B0C53430FE0104B72
:104AC0000DE00B4A5023D35CDBB21A0004231340E1
:104AD00001D1002303E0054BDB6800E00023180050
:104AE000BD4602B080BDC0463C840000A03C002012
:104AF0000008004000127A00E54900002D55000032
:104B0000006CDC0280B584B000AF78601A4B1B6A81
:104B1000FB607B681B781A1C03231340DAB20D2359
:104B2000FB1803210A4010001A7803218A43111C44
:104B3000021C0A431A707B689A780C23FB18D00178
:104B40001A787F210A40111C021C0A431A707B68E4
:104B50005A780C23FB1801210A4090011A78402151
:104B60008A43111C021C0A431A70034BFA681A622A
:104B7000C046BD4604B080BD0008004080B584B08A
:104B800000AF78602F4B9B69FB607B685A780C23E1
:104B9000FB1801210A40D0001A7808218A43111C11
:104BA000021C0A431A707B689A780C23FB180121B7
:104BB0000A4090001A7804218A43111C021C0A43FF
:104BC0001A707B681B781A1C07231340DAB20D2376
:104BD000FB1807210A4010001A7807218A43111C8C
:104BE000021C0A431A707B681A790C23FB18D00147
:104BF0001A787F210A40111C021C0A431A707B6834
:104C0000DA780C23FB1801210A4090011A78402120
:104C10008A43111C021C0A431A707B685A790D23BF
:104C2000FB1801210A4010011A7810218A43111C37
:104C3000021C0A431A70034BFA689A61C046BD46CB
:104C400004B080BD0008004080B584B000AF78603B
:104C5000434A0C23FB18928A1A807B685B781A1CE3
:104C600007231340DAB20C23FB1807210A40100077
:104C70005A7807218A43111C021C0A435A707B6828
:104C80001B78002B06D10C23FB181A7804210A4349
:104C90001A7005E00C23FB181A7804218A431A7055
:104CA0007B689A780C23FB1801210A4050011A787E
:104CB00020218A43111C021C0A431A707B68DA788F
:104CC0000C23FB1801210A4010011A7810218A4395
:104CD000111C021C0A431A707B681A790C23FB18FA
:104CE00001210A40D0001A7808218A43111C021CB5
:104CF0000A431A707B685A7B0C23FB18D0011A7880
:104D00007F210A40111C021C0A431A707B681A7B1F
:104D10000C23FB1801210A4090011A7840218A4394
:104D2000111C021C0A431A707B689A7B0C23FB1827
:104D300001210A4010015A7810218A43111C021CDB
:104D40000A435A707B689A68064B5A61044A0C23DE
:104D5000FB181B889382C046BD4604B080BDC04688
:104D600000080040A03C002080B582B000AF0200E7
:104D7000FB1D1A70FB1D1B78082B3BD89A00214B9A
:104D8000D3181B689F46204B1F4A126A02210A4310
:104D90001A62002331E01C4B1B4A926902210A432C
:104DA0009A6129E0184A184B1B8A9BB202210B43D7
:104DB0009BB2138220E0144A134B9B8A9BB20221C0
:104DC0000B439BB2938217E0104B1B6802221A43DD
:104DD0000E4B1A600E4B98470EE00B4A0A494423CB
:104DE000CB5CDBB202210B43D9B24423D15403E0A4
:104DF000002302E0172300E000231800BD4602B0A4
:104E000080BDC0466084000000080040A03C002037
:104E1000014A000080B584B000AF0200FB1D1A708B
:104E20000023FB60FB1D1B78082B21D89A00184B30
:104E3000D3181B689F460823FB601BE00423FB601C
:104E400018E00123FB6015E00223FB6012E0102351
:104E5000FB600FE00F4A5023D35CDBB21A00032340
:104E60001340033B5A425341DBB20CE001230AE0FA
:104E7000002308E0074BDB68FA681A40FB68D31A86
:104E80005A425341DBB21800BD4604B080BDC04653
:104E9000848400000008004080B582B000AF3B0071
:104EA00001221A7000237B6009E07B68DBB23A00C4
:104EB00011001800054B98477B6801337B607B68C5
:104EC000242BF2D9C046BD4602B080BD0954000073
:104ED00080B5A6B000AF6E4BC222D2009A6000200F
:104EE0006C4B98476C4B98478823FB1818006B4B0A
:104EF00098478823FB18802212029A608823FB18A7
:104F000000221A708823FB1806225A708823FB1887
:104F100000229A708823FB180122DA708823FB187C
:104F200001221A718823FB1800225A738823FB1868
:104F300000221A738823FB181800594B9847052044
:104F4000584B9847C0460520574B984703001A0016
:104F500001235340DBB2002BF5D14D4A938A8021C7
:104F60000B4393824A4A514B1B689B09DBB2191CC5
:104F70007F230B40D9B293697F20014009044C483C
:104F800003400B4393618023FB181800494B98475B
:104F90008023FB1807221A708023FB1801225A7005
:104FA0008023FB1801229A708023FB1801221A71BA
:104FB0008023FB180022DA708023FB1818003E4B78
:104FC00098470420374B98477C23FB1818003B4B2D
:104FD00098477C23FB1800221A707C23FB180122BF
:104FE0009A707C23FB1800225A707C23FB1818004F
:104FF000334B984706202B4B9847324B9847582302
:10500000FB181800304B98475823FB1805221A70DC
:105010005823FB1820225A605823FB1800221A72CA
:105020005823FB1800225A725823FB18190002203B
:10503000264B98470220264B98470020254B98473F
:1050400000210020244B984700210120224B984743
:1050500000210220204B98473B1D18001A4B98470F
:105060003B1D06221A703B1D01225A603B1D002287
:105070001A723B1D00225A723B1D19000020134B6F
:1050800098470020124B9847C046BD4626B080BDC9
:1050900000080040B1490000994E00009F48000000
:1050A000494C0000694D0000154E0000246080004E
:1050B000FFFF80FFE74800007D4B00001B49000018
:1050C000054B00008151000071480000B151000003
:1050D000D55200003D4900005D49000080B582B016
:1050E00000AF02003960FB1D1A70FB1D1B78012BFD
:1050F0000AD0022B0FD0002B14D10E4B0D4A916910
:105100003A680A439A610FE00A4B0A4AD1693A6841
:105110000A43DA6108E0074B064A116A3A680A4313
:105120001A6201E0172300E000231800BD4602B018
:1051300080BDC0460004004080B500AF024B9847D8
:10514000C046BD4680BDC046D522000080B500AF38
:10515000024B9847C046BD4680BDC046292300008B
:1051600080B500AF054B5B78DBB25BB2002B01DA98
:10517000012300E000231800BD4680BD000C004064
:1051800080B500AF08210020074B9847074B01224C
:105190001A70C046054B1B78DBB21A00012313407E
:1051A000F8D1C046BD4680BDDD500000000C004077
:1051B00080B586B000AF02003960FB1D1A70FB1D80
:1051C0001B787B61FB1D1B783B613B681B781B02D6
:1051D0001A007B6913437B613B685B78002B04D02A
:1051E0007B698022D20213437B613B685B7A002B90
:1051F00004D07B698022120313437B613B685B68A8
:10520000012B2CD93B685A683B685B68013B134013
:105210001AD10023FB600223BB6005E0FB68013369
:10522000FB60BB685B00BB603B685A68BB689A4226
:10523000F4D8FB681B023A6913433B617B69802207
:10524000520313437B610AE03B685B681B023A69C7
:1052500013433B617B698022920213437B613B686D
:105260001B7A002B04D07B698022920313437B615D
:10527000C046134B9847031EFBD1124B9847124A66
:10528000FB1D1B781370C0460D4B9847031EFBD1C6
:105290000E4B3A699A60C046094B9847031EFBD1F2
:1052A0000A4B0A4A51688022520211407A690A4325
:1052B0005A60074B9847C046BD4606B080BDC04601
:1052C0006151000039510000080C0040000C004002
:1052D0004D51000080B582B000AF0200FB1D1A7076
:1052E000C0460E4B9847031EFBD10D4B98470D4A05
:1052F000FB1D1B781370C046084B9847031EFBD15B
:10530000094B094A5268802149020A435A60074BF7
:105310009847C046BD4602B080BDC04661510000FE
:1053200039510000040C0040000C00404D510000B9
:1053300080B586B000AF0200FB1D1A70C0462A4B34
:105340009847031EFBD1294B9847294AFB1D1B7820
:105350001370C046244B9847031EFBD1254B5B6856
:10536000DB04DB0EDBB21800234B984703007B61A4
:105370001F4AFB1D1B7813701E4B5B68DB02DB0FA3
:10538000DAB21323FB181A701C4AFB1D1B7813702A
:10539000C046154B9847031EFBD1164B9B681B025A
:1053A0001B0C9BB2FB60164B98471323FB181B7812
:1053B000002B09D1FB68012B06D9124BF9687869DB
:1053C000984703007B610AE01323FB181B78002B2E
:1053D00005D0FB6801337A69DA4013007B617B6991
:1053E0001800BD4606B080BD615100003951000073
:1053F000040C0040000C0040454A0000080C00402E
:105400004D510000D976000080B584B000AF020095
:105410003960FB1D1A70FB1D1B78FB603B681B7815
:105420001B021A00FB681343FB60FB1D1B7818006E
:10543000044B9847044BFA6892B25A80C046BD4666
:1054400004B080BD95540000000C004080B582B0CF
:1054500000AF0200FB1D1A700A4B98470A4AFB1D59
:105460001B7813700949094B5B889BB28022D201DB
:1054700013439BB24B80064B9847C046BD4602B0D3
:1054800080BDC04639510000020C0040000C0040B5
:105490004D51000080B584B000AF0200FB1D1A70B2
:1054A0001C4B98471C4AFB1D1B7813701B4B5B88D9
:1054B0001B051B0FDBB2FB60184A538818490B40D1
:1054C0005380164A154B5B889BB216490B409BB222
:1054D0005380C046114B5B889BB21A008023DB01CE
:1054E0001340F7D10D4AFB68DBB2191C0F230B40A8
:1054F000D9B25388081C0F210140080208490B400B
:10550000191C031C0B435380074B9847C046BD46EC
:1055100004B080BD39510000020C0040000C004076
:10552000FFF0FFFFFFBFFFFF4D51000080B584B0CB
:1055300000AF0200FB1D1A700D4B98470D4AFB1D72
:105540001B7813700C4B5B881B051B0FDAB20F2303
:10555000FB181A70094B98470F23FB181B7818008B
:10556000074B984703001800BD4604B080BDC046F5
:1055700039510000020C0040000C00404D51000069
:105580003153000080B584B000AF0200FB1D1A70DB
:105590000F23FB18FA1D1278D2091A700E23FB187C
:1055A000FA1D127852091A700D4BBB600F23FB18BD
:1055B0001B78002B0FD10F23FB181B789B001022A8
:1055C0009446BC446344083B1A680E23FB181B78BE
:1055D000DB01D31800E000231800BD4604B080BDF5
:1055E0000044004180B588B000AFF860B9607A60CF
:1055F0000023FB617B68DB7801225340DBB2002B88
:1056000035D07B681B78802B0BD0FB69802252023F
:105610001343FB617B681B781B061A00FB6913436D
:10562000FB617B685B78002B03D07B685B78022B87
:1056300010D1FB69802292021343FB617B689B7847
:10564000002B04D0FB698022D2021343FB61FB686C
:10565000BA685A607B685B78012B03D07B685B7803
:10566000022B07D1FB69224A1340FB6102E0FB6871
:10567000BA685A60BB681B041B0CBB61BB681B0C7F
:105680007B61BA69FB691343A022D2051A43FB6808
:105690009A627A69FB691343D02212061A43FB68A7
:1056A0009A627B68DB7801225340DBB2002B1AD070
:1056B000FA698023DB0213400AD07B689B78012BB8
:1056C00003D1FB68BA689A6102E0FB68BA685A6164
:1056D0007B685B78012B03D07B685B78022B02D15F
:1056E000FB68BA689A60C046BD4608B080BDC04637
:1056F000FFFFFBFF80B584B000AF02003960FB1DE7
:105700001A70FB1D1B7818000A4B98470300FB60BA
:10571000FB1D1B781F22134001229A401300BB601F
:105720003A68B968FB681800034B9847C046BD4605
:1057300004B080BD85550000E555000080B500AF80
:10574000C046BD4680BD000080B500AF064B9847FF
:10575000064B9847064B9847064B9847064B984789
:10576000C046BD4680BDC046D14E00006524000045
:105770003D5700003D5700003D57000080B500AF89
:105780000020024B9847C046BD4680BDB957000077
:1057900080B500AF0120024B9847C046BD4680BD92
:1057A000B957000080B500AF0220024B9847C046B1
:1057B000BD4680BDB957000080B586B000AF02007D
:1057C000FB1D1A70FB1D1A78184B9200D3583B61D1
:1057D0003B691B68DA6A3B695B6B1A403B699B6BF0
:1057E0001340FB6000237B6119E0114B7A69920042
:1057F000D358FA6813400FD03A697B699B00D318DD
:1058000004331B683A69100098473B691B68084AD3
:10581000796989008A58DA627B6901337B617B6927
:105820000B2BE2DDC046BD4606B080BD303D0020FA
:10583000A884000080B500AF0020024B9847C04606
:10584000BD4680BD9958000080B500AF0120024BD5
:105850009847C046BD4680BD9958000080B500AF4E
:105860000220024B9847C046BD4680BD99580000B3
:1058700080B500AF0320024B9847C046BD4680BDAF
:105880009958000080B500AF0420024B9847C046ED
:10589000BD4680BD9958000080B584B000AF0200BD
:1058A000FB1D1A70FB1D1A78284B9200D358FB6021
:1058B000FB681B689B7BDBB2FA68127E1340DAB28E
:1058C000FB68597E0B23FB180A401A700B23FB1848
:1058D0001B780122134008D0FB689B68FA6810000F
:1058E0009847FB681B6801229A730B23FB181B78EF
:1058F0000222134008D0FB68DB68FA681000984762
:10590000FB681B6802229A730B23FB181B7810227A
:10591000134008D0FB681B69FA6810009847FB68C1
:105920001B6810229A730B23FB181B78202213404C
:1059300008D0FB685B69FA6810009847FB681B6831
:1059400020229A73C046BD4604B080BD3C3D002075
:1059500080B582B000AF2F4B7B602F4B3B607A68E5
:105960003B689A420CD007E03B681A1D3A607A689F
:10597000111D796012681A603A68284B9A42F3D375
:10598000274B3B6004E03B681A1D3A6000221A6016
:105990003A68244B9A42F6D3234B7B60234B7A68B8
:1059A000FF218A439A60224A90235B000221D15052
:1059B000204AD37803218B43191C02230B43D37055
:1059C0001C4AD3780C218B43191C08230B43D3703A
:1059D000194A937B30218B43191C20230B4393736B
:1059E000154A937B0C218B43191C08230B4393739B
:1059F000114A937B03218B43191C02230B4393739E
:105A00000E4A536880210B4353600D4B98470D4B52
:105A10009847FEE7A0850000000000201400002049
:105A200020000020643E00200000000000ED00E0A7
:105A3000007000410050004100480041004000411A
:105A4000558200005564000080B582B000AFEFF3CE
:105A500005837B607A68014B1A60F8E70C00002030
:105A600080B584B000AF0200FB1D1A700F23FB1835
:105A7000FA1D1278D2091A700E23FB18FA1D12783B
:105A800052091A700D4BBB600F23FB181B78002BBB
:105A90000FD10F23FB181B789B0010229446BC44A7
:105AA0006344083B1A680E23FB181B78DB01D318EC
:105AB00000E000231800BD4604B080BD0044004152
:105AC00080B582B000AF0200FB1D1A70064BFA1DB4
:105AD000127811001F220A40012191400A001A6029
