:10000000E0210020112F000009300000093000001D
:1000100000000000000000000000000000000000E0
:100020000000000000000000000000000930000097
:10003000000000000000000009300000093000004E
:100040000930000009300000093000004D0D0000AB
:1000500009300000093000003D01000009300000B7
:1000600009300000F1130000091400002114000001
:100070003914000051140000691400003D2D0000E7
:10008000512D0000652D0000F52D0000092E000007
:100090001D2E0000312E0000452E00003506000008
:1000A000093000000930000009300000093000006C
:1000B0000000000010B5064C2378002B07D1054B3B
:1000C000002B02D0044800E000BF0123237010BDC4
:1000D000100000200000000098370000084B10B509
:1000E000002B03D00749084800E000BF0748036819
:1000F000002B00D110BD064B002BFBD09847F9E731
:10010000000000001400002098370000983700001D
:100110000000000080B500AF024B9847C046BD46C6
:1001200080BDC0468102000080B500AF024B9847F9
:10013000C046BD4680BDC046D502000080B586B031
:1001400000AF494B9847494B1B8C9BB2DAB217233F
:10015000FB180F210A401A701723FB181A78444B1A
:100160009200D3583B61414A3B691B780F210B40F9
:10017000D9B23F23D1543D490F23FB184E228A5C4C
:100180001A703B691B783B4A1B01D31802331B884A
:100190009BB2BB603B691B78374A1B01D318023303
:1001A0001B889BB27B60BA687B68D21A3B695A6134
:1001B0000F23FB181B780122134016D02B4A4E2325
:1001C0000121D1543B6910225A743B691B7C1A00EF
:1001D0000123134042D03B695B68002B3ED03B6952
:1001E0005B683A691000984738E00F23FB181B78CA
:1001F0000222134016D01D4A4E230221D1543B69DE
:1002000000225A743B691B7C1A000223134025D03C
:100210003B699B68002B21D03B699B683A691000C1
:1002200098471BE00F23FB181B780422134015D0BE
:100230000E4A4E230421D1543B6906225A743B696D
:100240001B7C1A000423134008D03B69DB68002B99
:1002500004D03B69DB683A6910009847074B984720
:10026000C046BD4606B080BD1501000000480041F3
:1002700080000020E0000020300000202901000064
:1002800080B582B000AF104B1B68002B12D1EFF38A
:1002900010837B607B68002B09D172B6BFF35F8F40
:1002A0000A4B00221A700A4B01221A7002E0084B16
:1002B00000221A70044B1B685A1C034B1A60C0467C
:1002C000BD4602B080BDC046940000200000002062
:1002D0009800002080B500AF0B4B1B685A1E0A4BDC
:1002E0001A60094B1B68002B0AD1084B1B78DBB244
:1002F000002B05D0064B01221A70BFF35F8F62B648
:10030000C046BD4680BDC046940000209800002035
:100310000000002080B584B000AF0200FB1D1A7001
:100320000F23FB18FA1D1278D2091A700E23FB183E
:10033000FA1D127852091A700D4BBB600F23FB187F
:100340001B78002B0FD10F23FB181B789B0010226A
:100350009446BC446344083B1A680E23FB181B7880
:10036000DB01D31800E000231800BD4604B080BDB7
:100370000044004180B582B000AF0200FB1D1A703E
:10038000FB1D1B781800034B984703001800BD465F
:1003900002B080BD1503000080B582B000AF786068
:1003A0007B6800221A707B6801225A707B680022E9
:1003B0009A70C046BD4602B080BD000080B584B0D2
:1003C00000AF0200FB1D1A70BB1D0A1C1A70FB1D3A
:1003D0001B7818000D4B98470300FB60FB1D1B7832
:1003E0001F22134001229A401300BB60BB1D1B78E3
:1003F000002B03D0FB68BA689A6102E0FB68BA6818
:100400005A61C046BD4604B080BDC04675030000B9
:1004100080B582B000AF3B1D18000E4B98473B1DC6
:1004200001221A703B1D19003E200B4B98470121F9
:100430003E200A4B98473B1D00221A703B1D0122AB
:100440005A703B1D19000F20034B9847C046BD460C
:1004500002B080BD9903000071060000BD030000DA
:1004600080B584B000AF78607B681B68FB60FB6878
:100470005B7EDBB25BB2002B01DA012300E00023DC
:100480001800BD4604B080BD80B584B000AF786070
:100490007B681B68FB60C0467B6818000B4B984765
:1004A000031EF9D1FB681B7BDBB202221343DAB2D5
:1004B000FB681A73C0467B681800044B9847031EFC
:1004C000F9D1C046BD4604B080BDC04661040000FD
:1004D00080B584B000AF78600A00FB1C1A707B689E
:1004E0001B68FB60FB68FA1C12789A75C046BD4613
:1004F00004B080BD80B584B000AF0200FB1D1A704F
:10050000FB1D1A78474B9200D358FB60FB681B68B1
:100510001B7EDAB2FB681B68DB7DDBB21340DBB20B
:10052000BB60BB680122134045D0FB681B680122F9
:100530001A76C046FB6818003B4B9847031EF9D15A
:10054000FB685B69991CFA685161FA681268528B02
:1005500092B21A80FB681B8B9BB2013B9BB2FA687C
:10056000191C1183002B08D0FB685B7F002B22D065
:10057000FB6818002D4B98471DE0FB68012118000F
:100580002B4B9847FB681B7FDBB2052B13D1FB6815
:1005900000221A77FB68DB7E1A00012313400AD081
:1005A000FB689B7E1A000123134004D0FB689B6804
:1005B000FA6810009847BB680422134014D0FB6807
:1005C0001B6804221A76FB68DB7E1A0002231340A4
:1005D0000AD0FB689B7E1A000223134004D0FB68FC
:1005E000DB68FA6810009847BB680222134014D0F9
:1005F000FB681B6802221A76FB68DB7E1A00042364
:1006000013400AD0FB689B7E1A000423134004D0D9
:10061000FB681B69FA6810009847C046BD4604B0E5
:1006200080BDC04630010020610400008904000044
:10063000D104000080B500AF0020024B9847C046AF
:10064000BD4680BDF504000080B582B000AF786083
:100650007B6880221A707B6800225A707B680122B6
:100660009A707B680022DA70C046BD4602B080BD39
:1006700080B584B000AF02003960FB1D1A700C23F6
:10068000FB181800104B98470C23FB1880221A7097
:100690003B681A780C23FB185A703B685A780C2375
:1006A000FB189A703B689A780C23FB18DA700C23BD
:1006B000FA18FB1D1B7811001800044B9847C04620
:1006C000BD4604B080BDC04649060000B52C000000
:1006D00080B582B000AF78607B6800221A70C04697
:1006E000BD4602B080BD000080B582B000AF020000
:1006F0003960FB1D1A70FB1D1B78012B0AD0022BE1
:100700000FD0002B14D10E4B0D4A91693A680A4361
:100710009A610FE00A4B0A4AD1693A680A43DA61E2
:1007200008E0074B064A116A3A680A431A6201E078
:10073000172300E000231800BD4602B080BDC0466C
:100740000004004080B582B000AF0200FB1D1A70AB
:10075000064BFA1D127811001F220A400121914018
:100760000A001A60C046BD4602B080BD00E100E04C
:1007700080B582B000AF0200FB1D1A70074AFB1D56
:100780001B7819001F230B40012199400B00190011
:100790008023D150C046BD4602B080BD00E100E0DC
:1007A00080B584B000AF78607B681B68FB60FB6835
:1007B0009B7ADBB25BB2002B01DA012300E000235D
:1007C0001800BD4604B080BD80B584B000AF78602D
:1007D0007B681B68FB6003200A4B9847C0467B6818
:1007E0001800094B9847031EF9D1FB681B889BB280
:1007F000022213439AB2FB681A80C046BD4604B079
:1008000080BDC04645070000A107000080B584B048
:1008100000AF78607B681B68FB6003200D4B984736
:10082000C0467B6818000C4B9847031EF9D1FB6843
:10083000C1229A71FB68C1221A72FB681B889BB2A5
:10084000022293439AB2FB681A80C046BD4604B0A8
:1008500080BDC04671070000A107000080B584B0CC
:1008600000AF78607B681B68FB607B6818000D4BED
:1008700098477B6800229A827B680022DA82C04611
:100880007B681800084B9847031EF9D1FB681B884A
:100890009BB2012213439AB2FB681A80C046BD4640
:1008A00004B080BD0D080000A107000080B584B031
:1008B00000AF786039607B681B68BB603B681A8852
:1008C000BB681A803B689B78002B3AD0012B00D084
:1008D0006CE0BB681B889AB2BB681A803B68DB7807
:1008E000002B07D0BB681B889BB2802213439AB2AF
:1008F000BB681A800F23FB1800221A701BE0C04649
:100900007B681800374B9847031EF9D10F23FB185B
:100910001A783B6802329200D1580F23FB181A78DC
:100920007B681800304B98470F23FB181A780F2369
:10093000FB1801321A700F23FB181B78002BDED036
:1009400036E0BB681B889BB2042213439AB2BB6893
:100950001A803B68DB78002B01D017233EE00E2382
:10096000FB1800221A701BE0C0467B6818001D4B64
:100970009847031EF9D10E23FB181A783B68023200
:100980009200D1580E23FB181A787B681800164B7A
:1009900098470E23FB181A780E23FB1801321A70A1
:1009A0000E23FB181B78012BDED901E0172315E07D
:1009B0003B681B79002B10D0BB685B889BB2802200
:1009C000D20113439AB2BB685A80BB685B889BB262
:1009D000064A13439AB2BB685A8000231800BD46EA
:1009E00004B080BDA1070000E10A00000080FFFF05
:1009F00080B586B000AFF860B9607A60FB68BA680D
:100A00001A6020210020174B98471423FB18180068
:100A1000154B98471423FB1802221A701423FB1855
:100A200019000420114B98470420114B9847FB688C
:100A30001800104B98477B689A78FB681A717B689E
:100A40001A79FB685A710C4BFA681A607A68FB686D
:100A500011001800094B984703001800BD4606B066
:100A600080BDC046E9060000D1060000C92900008B
:100A70000D2A00005D08000034010020AD080000D0
:100A800080B584B000AF786039607B681B68FB601C
:100A9000C0467B681800104B9847031EF9D17B684D
:100AA0001B79002B05D0012B0ED1FB683A681A6127
:100AB0000CE03B68094A934201D9172307E03B68E1
:100AC0009AB2FB681A8201E0172300E000231800A5
:100AD000BD4604B080BDC046A1070000FFFF000076
:100AE00080B586B000AFF860B960FB1D1A70FB6876
:100AF0001B687B61C046FB6818001A4B9847031EB1
:100B0000F9D1FB681B79002B0FD0012B22D1FB1DE3
:100B10001B78012B01D917231FE0FB1D1A787B6975
:100B200006329200B968D15016E0FB1D1B78022BEB
:100B300001D9172311E0BB680B4A934201D917234F
:100B40000BE0FB1D1A78BB6899B27B690C3252002E
:100B5000D15201E01A2300E000231800BD4606B080
:100B600080BDC046A1070000FFFF000080B586B031
:100B700000AFF860B960FB1D1A701723FB18002244
:100B80001A70FB1D1B78022B04D11723FB180022BF
:100B90001A701FE0FB681B79002B0AD0012B11D1C2
:100BA000FB1D1B78012B12D91723FB1817221A7073
:100BB0000DE0FB1D1B78022B0BD91723FB18172206
:100BC0001A7006E01723FB1817221A7002E0C046BD
:100BD00000E0C0461723FB181B78002B15D1FB1D26
:100BE0001A78FB6802329200B968D150FB689B8A80
:100BF0009BB21AB2FB1D1B78012199400B001BB25E
:100C000013431BB29AB2FB689A821723FB181B7816
:100C10001800BD4606B080BD80B584B000AF7860D6
:100C20000A00FB1C1A707B681B68FB60FB1C1B78AE
:100C3000022B03D1FB688022DA710AE0FB1C1B78CF
:100C400001229A401300DBB203221340DAB2FB68A0
:100C5000DA717B68DB8A9BB21AB2FB1C1B7801211C
:100C600099400B001BB213431BB29AB27B68DA8225
:100C7000C046BD4604B080BD80B586B000AF786088
:100C8000314B7A689200D3587B617B691B683B616A
:100C90000E23FB187A69D28A1A807B699B8A9AB2E2
:100CA0000E23FB180E21791809880A401A803B6927
:100CB0001B7ADAB20C23FB181A803B69DB79DBB2B2
:100CC0009AB20C23FB180C21791809880A401A8063
:100CD0000C23FB181B88802213400CD00E23FB181A
:100CE0001B880422134002D07B691B6998473B692B
:100CF00080221A7224E00C23FB181B880122134067
:100D00000CD00E23FB181B880122134002D07B69F4
:100D10009B6898473B6901221A7211E00C23FB186B
:100D20001B88022213400BD00E23FB181B880222C3
:100D3000134002D07B69DB6898473B6902221A7234
:100D4000C046BD4606B080BD3401002080B500AF6E
:100D50000020024B9847C046BD4680BD790C00007C
:100D600080B582B000AF78607B6800221A70C04600
:100D7000BD4602B080BDF0B58DB000AFB860F9607F
:100D80003A607B60002300243B627C6200230024E5
:100D9000BB61FC613F23FB6253E0FB6A203B002BFD
:100DA00004DB01229A4013007B610BE0FB6A2022E6
:100DB000D31A0122DA4013000021FA6A91400A0096
:100DC00013437B610122FB6A9A4013003B61BB69BC
:100DD000FC69DB186441BB61FC61BB683A691A407D
:100DE0001500FB687A691A4016002B00334307D0C0
:100DF000BB6901221343BB61FB6900221343FB6102
:100E00007A68FB699A4219D87A68FB699A4203D1D9
:100E10003A68BB699A4211D8B969FA693B687C683B
:100E2000C91AA2410B001400BB61FC613A6A3B691C
:100E300013433B627A6A7B6913437B62FB6A013B23
:100E4000FB62FB6A002BA8DA3B6A7C6A180021006F
:100E5000BD460DB0F0BD80B586B000AFF860B9609A
:100E60007A601623FB1800221A80BB683B61BB68BE
:100E70005A08FB689A4201D2402326E0BB685B080F
:100E80003B610AE03A69FB68D31A3B611623FB1801
:100E90001A881623FB1801321A803A69FB689A42B5
:100EA000F0D21623FB181622BA181288013A1A80BB
:100EB0001623FB181B88FF2B01D9402305E07B6814
:100EC0001622BA1812881A8000231800BD4606B0F0
:100ED00080BD0000F0B5A1B000AFF864B9647A64D9
:100EE0004322BA181370002300243B677C67002359
:100EF0000024BB66FC6600230024BB67FC6700235C
:100F00007B66582340229446BC4463441A78FB6CA9
:100F10005A43BB6C9A4201D94023B3E04323FB18E8
:100F20001B78002B3DD1582340229446BC44634497
:100F30001B78DBB23B6100237B61FB6CBB60002351
:100F4000FB60524CBA68FB6838697969A0470300B6
:100F50000C001B00FB650023BB65BB6C3B600023E2
:100F60007B60B86DF96D3A687B68494CA047030017
:100F70000C003B677C67002101223B6F7C6FC91A24
:100F8000A2410B001400BB66FC66BB6E1B0CFA6E24
:100F900016041E43BB6E1D043300BB670023FB67B2
:100FA0006AE04323FB181B78012B65D1FB6C3B6384
:100FB00000237B63582340229446BC4463441B783F
:100FC000DBB2BB620023FB62304CBA6AFB6A386B4F
:100FD000796BA04703000C00BB65FC65BB6C3B62F2
:100FE00000237B62BB6DFC6D1A002300386A796AAE
:100FF000274CA04703000C007B667A6E80239B0180
:101000009A4201D940233DE0BB6CBB610023FB61E8
:10101000B969FA690B005B0F1000C000F863F86B48
:101020001843F8630B00DB00BB63BB6DFC6D1A005B
:101030002300B86BF96B164CA04703000C00BB658E
:10104000FC65BB6DFC6DD9B27B6EDBB2DB00DAB246
:10105000172340208446BC4463448A1A1A7017231D
:1010600040229446BC4463441B785B031A007B6EA9
:101070001343BB670023FB67BB6FFC6F9AB27B6CAB
:101080001A8000231800BD4621B0F0BD353600009F
:10109000770D000080B584B000AF0200FB1D1A7010
:1010A000BB1D0A1C1A701A4B1B7801225340DBB27D
:1010B000002B03D1BB1D1B78002B1BD00C23FB186E
:1010C0001800144B98470C23FB18FA1D12781A705D
:1010D0000C23FB18190013200F4B984713200F4BBC
:1010E00098470B4BFA1D12785A70094B01221A705F
:1010F000002308E0064B5B78FA1D12789A4201D172
:10110000002300E01D231800BD4604B080BDC0468A
:101110009C000020610D0000C92900000D2A00007C
:1011200080B582B000AF78600A00FB1C1A707B6843
:101130004D4A93423FD04C4A934206D84B4A934281
:101140000FD04B4A934221D089E04A4A934200D1C2
:101150005BE0494A934200D16CE0484A93423FD059
:101160007DE0FB1C1B78012B0AD002DC002B05D094
:1011700075E0022B06D0032B06D070E0404B6FE0E9
:10118000404B6DE0404B6BE0404B69E0FB1C1B7833
:10119000012B0AD002DC002B05D060E0022B06D028
:1011A000032B06D05BE003235AE0394B58E0394B60
:1011B00056E0394B54E0FB1C1B78012B0AD002DCB3
:1011C000002B05D04BE0022B06D0032B06D046E0C7
:1011D000324B45E0324B43E0324B41E0324B3FE093
:1011E000FB1C1B78012B0AD002DC002B05D036E05B
:1011F000022B06D0032B06D031E02C4B30E02C4BD9
:101200002EE02C4B2CE02C4B2AE0FB1C1B78012BF6
:101210000AD002DC002B05D021E0022B06D0032BE4
:1012200006D01CE0254B1BE0254B19E0254B17E0B1
:10123000254B15E0FB1C1B78012B0AD002DC002B90
:1012400005D00CE0022B06D0032B06D007E01F4B85
:1012500006E01F4B04E01F4B02E01F4B00E00023A1
:101260001800BD4602B080BD0010004200080042D8
:10127000000C004200180042001C00420014004212
:10128000030004000300050003000600030007003C
:101290000300010003001E0003001F0003000800FC
:1012A0000300090003000A0003000B000300100004
:1012B00003001100030012000300130003000C00E0
:1012C00003000D0003000E0003000F0003001600D2
:1012D00003001700030018000300190090B58BB03D
:1012E00000AF78600C23FB180F4A13CA13C313CA4C
:1012F00013C300237B620EE00C23FB187A6A920072
:10130000D3581A007B689A4202D17B6ADBB206E0AE
:101310007B6A01337B627B6A052BEDD900231800C1
:10132000BD460BB090BDC046D036000080B582B03F
:1013300000AF0200FB1D1A70C046BD4602B080BD62
:1013400080B584B000AF02003960FB1D1A70134BEA
:101350001B7801225340DBB2002B15D00023FB6029
:101360000CE00F4BFA6892000E49D1500E4BFA6810
:1013700092000021D150FB680133FB60FB68052B14
:10138000EFD9064B01221A70FB1D1A78044B92000C
:101390003968D150C046BD4604B080BD9E000020D3
:1013A000A00000202D1300003801002090B585B06A
:1013B00000AF78600823FB180B4A11681960928807
:1013C0009A800F23FC187B681800084B984703008D
:1013D00023700F23FB181B780822BA18D35C5BB26A
:1013E0001800BD4605B090BDE8360000DD120000D3
:1013F00080B500AF034B1B6800209847C046BD4630
:1014000080BDC046A000002080B500AF034B5B68E4
:1014100001209847C046BD4680BDC046A0000020C0
:1014200080B500AF034B9B6802209847C046BD467D
:1014300080BDC046A000002080B500AF034BDB6834
:1014400003209847C046BD4680BDC046A00000208E
:1014500080B500AF034B1B6904209847C046BD46CA
:1014600080BDC046A000002080B500AF034B5B6983
:1014700005209847C046BD4680BDC046A00000205C
:1014800080B582B000AF78607B6800221A70C046D9
:10149000BD4602B080BD000080B582B000AF020042
:1014A0003960FB1D1A70FB1D1B78012B0AD0022B23
:1014B0000FD0002B14D10E4B0D4A91693A680A43A4
:1014C0009A610FE00A4B0A4AD1693A680A43DA6125
:1014D00008E0074B064A116A3A680A431A6201E0BB
:1014E000172300E000231800BD4602B080BDC046AF
:1014F0000004004080B582B000AF78607B68802235
:101500001A707B6800225A707B6801229A707B688F
:101510000022DA70C046BD4602B080BD80B500AF83
:10152000054B9B78DBB21A00022313405A1E9341ED
:10153000DBB21800BD4680BD0020004180B584B0FC
:1015400000AF78607B681B68FB60FB68DB695A1E34
:101550009341DBB21800BD4604B080BD80B582B0B7
:1015600000AF7860C0467B681800044B9847031EA4
:10157000F9D1C046BD4602B080BDC0463D15000051
:10158000B0B58CB002AF786039607B681B68BB6116
:101590007B681B681800A94B984703007B617B6937
:1015A00014333B6100237B6200233B620A23FB1858
:1015B00000221A801F23FB1800221A701E23FB181A
:1015C00010221A703B681B8A8022D20193421CD0E1
:1015D0008022D201934206DC002B0DD080229201A2
:1015E000934224D035E0C022D201934228D08022F9
:1015F0001202934212D02CE01F23FB1800221A7013
:101600001E23FB1810221A7023E01F23FB18002250
:101610001A701E23FB1808221A701AE01F23FB18E9
:1016200000221A701E23FB1803221A7011E01F23D8
:10163000FB1801221A701E23FB1810221A7008E0F2
:101640001F23FB1801221A701E23FB1808221A7090
:10165000C0463B681A683B68DB681A433B685B69B5
:1016600013433A68128A13433A68127E12021343F4
:101670003A682621525C520713437B621D23FB18F4
:1016800000221A703B685B68FB60FB68002B1ED071
:101690008022520593424FD13B6827229B5C012256
:1016A0005340DBB2002B46D03B681D6A3B69DBB27E
:1016B0001800634B984701001D23FC180A23FB18F0
:1016C0001A0028005F4B98470300237033E03B6803
:1016D00027229B5C002B14D03B68186A3B68996AF0
:1016E0001D23FC181F23FB181D780A23FA181E233C
:1016F000FB181B7800932B00534DA8470300237061
:101700001AE03B681D6A3B69DBB218004C4B9847F6
:101710001D23FC181F23FB1819780A23FA181E230F
:10172000FB181B7800930B0001002800464DA847CA
:101730000300237000E0C0461D23FB181B78002B1C
:1017400003D01D23FB181B7873E03B685B7E002BE6
:1017500003D03B689A7EBB699A730A23FB181A88E8
:10176000BB699A817A6AFB6813437B623B682722D4
:101770009B5C01225340DBB2002B03D07B6A042226
:1017800013437B623B685B7E9A023B681B7F5B0274
:101790001A433B685B7F1B021A433B6824215B5C56
:1017A0005B041A433B6825215B5C1B0413433B62CB
:1017B0003B689B7A1A003B6A13433B623B68DB7AC7
:1017C0001A003B6A13433B623B681B89FF2B0BD01B
:1017D0007B6A8022520413437B623B681B891A0098
:1017E0003B6A13433B6208E03B68DB7E002B04D07E
:1017F0007B6A8022D20413437B623B682C229B5C71
:10180000002B03D1114B9847031E03D07B6A802223
:1018100013437B627B6818000D4B9847BB693A6A9B
:101820005A607B6818000A4B9847BB697A6A1A604D
:1018300000231800BD460AB0B0BDC046DD1200004E
:10184000ED2A0000570E0000D50E00001D15000007
:101850005D15000090B593B000AFF860B9607A6094
:101860003B23FB1800221A70FB68BA681A60FB68F9
:101870001B687B63FB681B681800864B9847030056
:101880003B633B6B0233FB623B6B1433BB627B6B92
:101890001B680122134001D00523F6E07B6B1B6817
:1018A0000222134001D01C23EFE00122FB6A9A4080
:1018B000130019000220784B98472423FB181800C6
:1018C000764B98477B682D229A5C2423FB181A706C
:1018D000BB6ADBB22422BA1811001800704B98477B
:1018E000BB6ADBB218006F4B98477B682D229B5C6C
:1018F000002118006C4B98477B68DA7AFB685A71B4
:101900007B6824229A5CFB689A717B6825229A5C2A
:10191000FB68DA717B68DA7EFB681A727B681A7F73
:10192000FB685A723B23FC187A68FB6811001800A8
:101930005E4B9847030023703B23FB181B78002B5A
:1019400003D03B23FB181B789FE02023FB181800D3
:10195000574B98472023FB1800225A702023FB186E
:1019600000229A707B681A6B1023FB181A607B6840
:101970005A6B1023FB185A607B689A6B1023FB1874
:101980009A607B68DA6B1023FB18DA604723FB1838
:1019900000221A702CE04723FB181A781023FB183A
:1019A0009200D3583B643B6C002B09D14723FB18B2
:1019B0001A78BB68110018003E4B984703003B643F
:1019C0003B6C01330DD03B6CDAB22023FB181A704C
:1019D0003B6C1B0CDBB22022BA1811001800364BEE
:1019E00098474723FB181A784723FB1801321A70CF
:1019F0004723FB181B78032BCDD90023FB630AE098
:101A0000FA68FB6B02339B00D318043300221A6080
:101A1000FB6B0133FB63FB6B052BF1D9FB680022E9
:101A20009A62FB6800225A62FB680022DA85FB6832
:101A300000229A85FB68302200219954FB683122EC
:101A400000219954FB68322200219954FB6833220B
:101A500000219954FB681B682722BC1818000D4B05
:101A6000984703002370154A2723FB181B781100A1
:101A70001800134B98472723FB181A78114B920034
:101A8000F968D1503B23FB181B781800BD4613B0F2
:101A900090BDC046DD1200009914000081140000C2
:101AA000C92900000D2A00009510000081150000D2
:101AB000F514000021110000B52C0000651D000088
:101AC000411300003801002080B584B000AF786079
:101AD0000A00BB1C1A807B681B68FB607B68DB7993
:101AE00001225340DBB2002B01D01C2313E07B68A2
:101AF000DB8D9BB2002B01D005230CE0FB68BA1CE8
:101B000012881A85C046FB681B7EDBB21A000223CE
:101B10001340F8D000231800BD4604B080BD80B546
:101B200084B000AF786039607B681B68FB607B68BD
:101B30009B7901225340DBB2002B01D01C235AE0D9
:101B40007B689B8D9BB2002B01D0052353E0FB6883
:101B50001B7EDBB21A000423134001D105234AE0A7
:101B6000FB685B8B9BB2DAB20B23FB183F210A4068
:101B70001A700B23FB181B78002B36D00B23FB1895
:101B80001B780222134004D0FB6802225A831A23D6
:101B900031E00B23FB181B780422134004D0FB68B0
:101BA00004225A831E2326E00B23FB181B780122F4
:101BB000134004D0FB6801225A8313231BE00B233C
:101BC000FB181B781022134004D0FB6810225A83A4
:101BD000422310E00B23FB181B782022134004D073
:101BE000FB6820225A83412305E0FB681B8D9AB2D3
:101BF0003B681A8000231800BD4604B080BD000079
:101C000080B58AB000AFF860B960BB1D1A80BB1DFB
:101C10001B88002B01D117237AE0FB68DB790122B6
:101C20005340DBB2002B01D01C2371E0FB681B6822
:101C30007B612623FB1800221A8048E000233B62C8
:101C40000FE07B691B7EDBB21A00012313400DD12C
:101C50003B6A314A934201D1122359E03B6A013376
:101C60003B623B6A2C4A9342EBD900E0C0462623F4
:101C7000FB181B882622BA18591C11801A00BB6851
:101C80009B181A781E23FB181A80FB685B79012BBE
:101C900015D12623FB181B882622BA18591C11803F
:101CA0001A00BB689B181B781B021AB21E23FB1874
:101CB00000215B5E13431AB21E23FB181A801E23F9
:101CC000FB181A88FB6811001800144B9847BB1DBD
:101CD0001B88BA1D591E1180002BAFD10023BB6198
:101CE0000FE07B691B7EDBB21A00022313400DD18B
:101CF000BB69094A934201D1122309E0BB69013350
:101D0000BB61BB69044A9342EBD900E0C0460023A3
:101D10001800BD460AB080BDFFFF0000C91A0000D0
:101D200080B584B000AF78607B681B68FB60FB689F
:101D3000DB695A1E9341DBB21800BD4604B080BD7A
:101D400080B582B000AF7860C0467B681800044B55
:101D50009847031EF9D1C046BD4602B080BDC046BB
:101D6000211D000080B588B000AF0200FB1D1A7075
:101D7000FB1D1A78A34B9200D358BB61BB691B684B
:101D80007B61BB691800A04B98477B691B7EDAB268
:101D90001223FB181A807B699B7DDBB29AB2122357
:101DA000FB181221791809880A401A80BB69302271
:101DB0009B5CBA693121525C1340DAB21023FB18E4
:101DC0001A801223FB181B880122134044D0BB69E0
:101DD000DB8D9BB2002B3CD0BB699B6A1B78DAB2CF
:101DE0001C23FB181A80BB699B6A5A1CBB699A6248
:101DF000BB695B79012B13D1BB699B6A1B78DBB292
:101E00001B021AB21C23FB1800215B5E13431AB29B
:101E10001C23FB181A80BB699B6A5A1CBB699A6217
:101E20001C23FB181B88DB05DB0D9AB27B691A8526
:101E3000BB69DB8D9BB2013B9BB2BA69191CD18592
:101E4000002B09D17B6901221A757B6902229A75E0
:101E500002E07B6901221A751223FB181B880222FB
:101E6000134011D07B6902221A75BB69332200210D
:101E700099541023FB181B880122134004D0BB691E
:101E8000DB68BA69100098471223FB181B880422EC
:101E9000134000D1BDE0BB699B8D9BB2002B00D1EC
:101EA000B4E07B695B8B9BB2DAB21F23FB183F2146
:101EB0000A401A701F23FB181B780822134007D012
:101EC0001F23FB181F22BA18127808218A431A70A0
:101ED0001F23FB181B78002B50D01F23FB181B78E7
:101EE0000222134007D0BB6932221A2199547B6920
:101EF00002225A8336E01F23FB181B78042213406A
:101F000007D0BB6932221E2199547B6904225A836F
:101F100028E01F23FB181B780122134007D0BB6960
:101F20003222132199547B6901225A831AE01F231C
:101F3000FB181B781022134007D0BB6932224221C4
:101F400099547B6910225A830CE01F23FB181B78DD
:101F50002022134006D0BB693222412199547B696B
:101F600020225A831023FB181B880422134050D0D0
:101F7000BB695B69BA69100098474AE07B691B8DB1
:101F80009AB20E23FB18D205D20D1A80BB695B6A88
:101F90000E22BA181288D2B21A70BB695B6A5A1C38
:101FA000BB695A62BB695B79012B0DD1BB695B6A66
:101FB0000E22BA181288120A92B2D2B21A70BB69F3
:101FC0005B6A5A1CBB695A62BB699B8D9BB2013B21
:101FD0009BB2BA69191C9185002B1AD17B69042226
:101FE0001A75BB693222002199541023FB181B88F3
:101FF000022213400DD0BB691B69BA6910009847D3
:1020000007E0C04638010020411D00007B69042222
:102010001A751223FB181B881022134010D07B69FD
:1020200010221A757B6910221A761023FB181B8860
:102030001022134004D0BB69DB69BA6910009847CD
:102040001223FB181B882022134010D07B6920220A
:102050001A757B6920221A761023FB181B88082228
:10206000134004D0BB699B69BA69100098471223DA
:10207000FB181B880822134010D07B6908221A75B0
:102080007B6908221A761023FB181B882022134034
:1020900004D0BB691B6ABA6910009847C046BD46A8
:1020A00008B080BD80B582B000AF78607B68012247
:1020B0005A607B6800225A707B6806221A707B681F
:1020C00000221A727B6800225A72C046BD4602B0D6
:1020D00080BD80B582B000AF78607B6801225A7005
:1020E0007B6801229A707B680022DA707B6801228B
:1020F0001A717B6807221A707B6800225A71C046E9
:10210000BD4602B080BD80B582B000AF78607B680C
:1021100003221A707B6800225A707B6801229A7031
:10212000C046BD4602B080BD80B582B000AF02009F
:10213000FB1D1A70034AFB1D1B781372C046BD4677
:1021400002B080BD0004004080B582B000AF020044
:10215000FB1D1A70BB1D0A1C1A70FB1D1B78012B7E
:1021600008D0022B0BD0002B0ED10B4ABB1D1B78C5
:1021700053720BE0084ABB1D1B78937206E0064AB7
:10218000BB1D1B78D37201E0172300E00023180069
:10219000BD4602B080BDC0460004004080B582B09C
:1021A00000AF0200FB1D1A70084AFB1D1B780F21AF
:1021B0000B40D9B253680F20014049001E208343D1
:1021C0000B435360C046BD4602B080BD0040004195
:1021D00080B500AFC046044BDB6810221340FAD034
:1021E000C046BD4680BDC0460008004080B500AF77
:1021F0000C4B02229A840C4B98470A4A0B4B9B6863
:10220000D362084A094B5B689362064B00229A84AA
:10221000054B9847034A054B1B689BB29384C04605
:10222000BD4680BD00080040D1210000B80000205C
:1022300080B582B000AF0200FB1D1A70FB1D1B7839
:10224000082B41D89A00234BD3181B689F46224B7A
:102250001B693AE0214B1B6A9B059B0FDBB21A00FE
:102260001F4BD34031E080231B022EE080231B0252
:102270002BE0194B5B6928E0174B1B6802221340C7
:1022800001D1002321E0174B9847134B1B682422F0
:102290001340042B09D10020134B984702000E4B2A
:1022A0009B681B041B0C53430FE0104B0DE00B4AC3
:1022B0005023D35CDBB21A000423134001D1002366
:1022C00003E0054BDB6800E000231800BD4602B0C8
:1022D00080BDC046F0360000B80000200008004075
:1022E00000127A00D1210000ED2A0000006CDC020F
:1022F00080B584B000AF78601A4B1B6AFB607B68C6
:102300001B781A1C03231340DAB20D23FB18032198
:102310000A4010001A7803218A43111C021C0A4348
:102320001A707B689A780C23FB18D0011A787F21E9
:102330000A40111C021C0A431A707B685A780C234D
:10234000FB1801210A4090011A7840218A43111C90
:10235000021C0A431A70034BFA681A62C046BD4653
:1023600004B080BD0008004080B584B000AF786044
:102370002F4B9B69FB607B685A780C23FB1801216B
:102380000A40D0001A7808218A43111C021C0A4313
:102390001A707B689A780C23FB1801210A40900080
:1023A0001A7804218A43111C021C0A431A707B68A4
:1023B0001B781A1C07231340DAB20D23FB180721E0
:1023C0000A4010001A7807218A43111C021C0A4394
:1023D0001A707B681A790C23FB18D0011A787F21B8
:1023E0000A40111C021C0A431A707B68DA780C231D
:1023F000FB1801210A4090011A7840218A43111CE0
:10240000021C0A431A707B685A790D23FB180121BC
:102410000A4010011A7810218A43111C021C0A4339
:102420001A70034BFA689A61C046BD4604B080BD7D
:102430000008004080B582B000AF0200FB1D1A709A
:10244000FB1D1B78082B3BD89A00214BD3181B6827
:102450009F46204B1F4A126A02210A431A62002338
:1024600031E01C4B1B4A926902210A439A6129E020
:10247000184A184B1B8A9BB202210B439BB2138252
:1024800020E0144A134B9B8A9BB202210B439BB260
:10249000938217E0104B1B6802221A430E4B1A60FE
:1024A0000E4B98470EE00B4A0A494423CB5CDBB243
:1024B00002210B43D9B24423D15403E0002302E0AC
:1024C000172300E000231800BD4602B080BDC046BF
:1024D0001437000000080040B8000020ED21000083
:1024E00080B582B000AF3B0001221A7000237B60F0
:1024F00009E07B68DBB23A0011001800054B9847F1
:102500007B6801337B607B68242BF2D9C046BD46D3
:1025100002B080BDC929000080B5A2B000AF4F4B0A
:10252000C222D2009A6000204D4B98474D4B9847ED
:102530004A4A4D4B1B689B09DBB2191C7F230B4099
:10254000D9B293697F2001400904484803400B43F6
:1025500093618023FB181800454B98478023FB1894
:1025600007221A708023FB1801225A708023FB185F
:1025700001229A708023FB1801221A718023FB1814
:102580000022DA708023FB1818003A4B9847042089
:10259000394B98477C23FB181800384B98477C230D
:1025A000FB1800221A707C23FB1801229A707C23EE
:1025B000FB1800225A707C23FB181800304B9847F8
:1025C00006202D4B98472F4B98475823FB1818008F
:1025D0002D4B98475823FB1804221A705823FB18D8
:1025E00020225A605823FB1800221A725823FB1825
:1025F00000225A725823FB1819000220234B9847D7
:102600000220234B98470020224B984700210020AE
:10261000214B9847002101201F4B984700210220A1
:102620001D4B98473B1D1800174B98473B1D062232
:102630001A703B1D01225A603B1D00221A723B1D7D
:1026400000225A723B1D19000020104B98470020B1
:102650000F4B9847C046BD4622B080BD00080040E1
:102660009D210000E124000024608000FFFF80FF26
:10267000D32000006923000035240000072100005A
:10268000F122000041270000A52000007127000072
:1026900095280000292100004921000080B582B062
:1026A00000AF02003960FB1D1A70FB1D1B78012B67
:1026B0000AD0022B0FD0002B14D10E4B0D4A91697A
:1026C0003A680A439A610FE00A4B0A4AD1693A68AC
:1026D0000A43DA6108E0074B064A116A3A680A437E
:1026E0001A6201E0172300E000231800BD4602B083
:1026F00080BDC0460004004080B500AF024B984743
:10270000C046BD4680BDC0468102000080B500AF16
:10271000024B9847C046BD4680BDC046D50200006A
:1027200080B500AF054B5B78DBB25BB2002B01DA02
:10273000012300E000231800BD4680BD000C0040CE
:1027400080B500AF08210020074B9847074B0122B6
:102750001A70C046054B1B78DBB21A0001231340E8
:10276000F8D1C046BD4680BD9D260000000C00404B
:1027700080B586B000AF02003960FB1D1A70FB1DEA
:102780001B787B61FB1D1B783B613B681B781B0240
:102790001A007B6913437B613B685B78002B04D094
:1027A0007B698022D20213437B613B685B7A002BFA
:1027B00004D07B698022120313437B613B685B6812
:1027C000012B2CD93B685A683B685B68013B13407E
:1027D0001AD10023FB600223BB6005E0FB680133D4
:1027E000FB60BB685B00BB603B685A68BB689A4291
:1027F000F4D8FB681B023A6913433B617B69802272
:10280000520313437B610AE03B685B681B023A6931
:1028100013433B617B698022920213437B613B68D7
:102820001B7A002B04D07B698022920313437B61C7
:10283000C046134B9847031EFBD1124B9847124AD0
:10284000FB1D1B781370C0460D4B9847031EFBD130
:102850000E4B3A699A60C046094B9847031EFBD15C
:102860000A4B0A4A51688022520211407A690A438F
:102870005A60074B9847C046BD4606B080BDC0466B
:1028800021270000F9260000080C0040000C004041
:102890000D27000080B582B000AF0200FB1D1A704A
:1028A000C0460E4B9847031EFBD10D4B98470D4A6F
:1028B000FB1D1B781370C046084B9847031EFBD1C5
:1028C000094B094A5268802149020A435A60074B62
:1028D0009847C046BD4602B080BDC04621270000D3
:1028E000F9260000040C0040000C00400D270000F9
:1028F00080B586B000AF0200FB1D1A70C0462A4B9F
:102900009847031EFBD1294B9847294AFB1D1B788A
:102910001370C046244B9847031EFBD1254B5B68C0
:10292000DB04DB0EDBB21800234B984703007B610E
:102930001F4AFB1D1B7813701E4B5B68DB02DB0F0D
:10294000DAB21323FB181A701C4AFB1D1B78137094
:10295000C046154B9847031EFBD1164B9B681B02C4
:102960001B0C9BB2FB60164B98471323FB181B787C
:10297000002B09D1FB68012B06D9124BF968786945
:10298000984703007B610AE01323FB181B78002B98
:1029900005D0FB6801337A69DA4013007B617B69FB
:1029A0001800BD4606B080BD21270000F9260000B2
:1029B000040C0040000C004031220000080C0040D4
:1029C0000D2700001D35000080B584B000AF020067
:1029D0003960FB1D1A70FB1D1B78FB603B681B7880
:1029E0001B021A00FB681343FB60FB1D1B781800D9
:1029F000044B9847044BFA6892B25A80C046BD46D1
:102A000004B080BD552A0000000C004080B582B0A3
:102A100000AF0200FB1D1A700A4B98470A4AFB1DC3
:102A20001B7813700949094B5B889BB28022D20145
:102A300013439BB24B80064B9847C046BD4602B03D
:102A400080BDC046F9260000020C0040000C00408A
:102A50000D27000080B584B000AF0200FB1D1A7086
:102A60001C4B98471C4AFB1D1B7813701B4B5B8843
:102A70001B051B0FDBB2FB60184A538818490B403B
:102A80005380164A154B5B889BB216490B409BB28C
:102A90005380C046114B5B889BB21A008023DB0138
:102AA0001340F7D10D4AFB68DBB2191C0F230B4012
:102AB000D9B25388081C0F210140080208490B4075
:102AC000191C031C0B435380074B9847C046BD4657
:102AD00004B080BDF9260000020C0040000C00404C
:102AE000FFF0FFFFFFBFFFFF0D27000080B584B0A0
:102AF00000AF0200FB1D1A700D4B98470D4AFB1DDD
:102B00001B7813700C4B5B881B051B0FDAB20F236D
:102B1000FB181A70094B98470F23FB181B781800F5
:102B2000074B984703001800BD4604B080BDC0465F
:102B3000F9260000020C0040000C00400D270000A8
:102B4000F128000080B584B000AF0200FB1D1A70B0
:102B50000F23FB18FA1D1278D2091A700E23FB18E6
:102B6000FA1D127852091A700D4BBB600F23FB1827
:102B70001B78002B0FD10F23FB181B789B00102212
:102B80009446BC446344083B1A680E23FB181B7828
:102B9000DB01D31800E000231800BD4604B080BD5F
:102BA0000044004180B588B000AFF860B9607A6039
:102BB0000023FB617B68DB7801225340DBB2002BF2
:102BC00035D07B681B78802B0BD0FB6980225202AA
:102BD0001343FB617B681B781B061A00FB691343D8
:102BE000FB617B685B78002B03D07B685B78022BF2
:102BF00010D1FB69802292021343FB617B689B78B2
:102C0000002B04D0FB698022D2021343FB61FB68D6
:102C1000BA685A607B685B78012B03D07B685B786D
:102C2000022B07D1FB69224A1340FB6102E0FB68DB
:102C3000BA685A60BB681B041B0CBB61BB681B0CE9
:102C40007B61BA69FB691343A022D2051A43FB6872
:102C50009A627A69FB691343D02212061A43FB6811
:102C60009A627B68DB7801225340DBB2002B1AD0DA
:102C7000FA698023DB0213400AD07B689B78012B22
:102C800003D1FB68BA689A6102E0FB68BA685A61CE
:102C90007B685B78012B03D07B685B78022B02D1C9
:102CA000FB68BA689A60C046BD4608B080BDC046A1
:102CB000FFFFFBFF80B584B000AF02003960FB1D51
:102CC0001A70FB1D1B7818000A4B98470300FB6025
:102CD000FB1D1B781F22134001229A401300BB608A
:102CE0003A68B968FB681800034B9847C046BD4670
:102CF00004B080BD452B0000A52B000080B500AFBF
:102D0000C046BD4680BD000080B500AF064B984769
:102D1000064B9847064B9847064B9847064B9847F3
:102D2000C046BD4680BDC046192500001104000004
:102D3000FD2C0000FD2C0000FD2C000080B500AF34
:102D40000020024B9847C046BD4680BD792D00004B
:102D500080B500AF0120024B9847C046BD4680BDFC
:102D6000792D000080B500AF0220024B9847C04685
:102D7000BD4680BD792D000080B586B000AF020051
:102D8000FB1D1A70FB1D1A78184B9200D3583B613B
:102D90003B691B68DA6A3B695B6B1A403B699B6B5A
:102DA0001340FB6000237B6119E0114B7A699200AC
:102DB000D358FA6813400FD03A697B699B00D31847
:102DC00004331B683A69100098473B691B68084A3E
:102DD000796989008A58DA627B6901337B617B6992
:102DE0000B2BE2DDC046BD4606B080BD5001002081
:102DF0003837000080B500AF0020024B9847C0462E
:102E0000BD4680BD592E000080B500AF0120024BA9
:102E10009847C046BD4680BD592E000080B500AF22
:102E20000220024B9847C046BD4680BD592E000087
:102E300080B500AF0320024B9847C046BD4680BD19
:102E4000592E000080B500AF0420024B9847C046C1
:102E5000BD4680BD592E000080B584B000AF020091
:102E6000FB1D1A70FB1D1A78284B9200D358FB608B
:102E7000FB681B689B7BDBB2FA68127E1340DAB2F8
:102E8000FB68597E0B23FB180A401A700B23FB18B2
:102E90001B780122134008D0FB689B68FA68100079
:102EA0009847FB681B6801229A730B23FB181B7859
:102EB0000222134008D0FB68DB68FA6810009847CC
:102EC000FB681B6802229A730B23FB181B781022E5
:102ED000134008D0FB681B69FA6810009847FB682C
:102EE0001B6810229A730B23FB181B7820221340B7
:102EF00008D0FB685B69FA6810009847FB681B689C
:102F000020229A73C046BD4604B080BD5C010020FB
:102F100080B582B000AF2F4B7B602F4B3B607A684F
:102F20003B689A420CD007E03B681A1D3A607A6809
:102F3000111D796012681A603A68284B9A42F3D3DF
:102F4000274B3B6004E03B681A1D3A6000221A6080
:102F50003A68244B9A42F6D3234B7B60234B7A6822
:102F6000FF218A439A60224A90235B000221D150BC
:102F7000204AD37803218B43191C02230B43D370BF
:102F80001C4AD3780C218B43191C08230B43D370A4
:102F9000194A937B30218B43191C20230B439373D5
:102FA000154A937B0C218B43191C08230B43937305
:102FB000114A937B03218B43191C02230B43937308
:102FC0000E4A536880210B4353600D4B98470D4BBD
:102FD0009847FEE79837000000000020040000201A
:102FE00010000020E00100200000000000ED00E0E3
:102FF0000070004100500041004800410040004185
:10300000893600008133000080B500AFFEE7000084
:1030100080B584B000AF0200FB1D1A700F23FB18AF
:10302000FA1D1278D2091A700E23FB18FA1D1278B5
:1030300052091A700D4BBB600F23FB181B78002B35
:103040000FD10F23FB181B789B0010229446BC4421
:103050006344083B1A680E23FB181B78DB01D31866
:1030600000E000231800BD4604B080BD00440041CC
:1030700080B500AF044B01221A70BFF35F8F62B6B8
:10308000C046BD4680BDC0460000002080B582B06D
:1030900000AF0200FB1D1A70064BFA1D12781100DA
:1030A0001F220A40012191400A001A60C046BD4615
:1030B00002B080BD00E100E080B582B000AF020048
:1030C000FB1D1A70FB1D1B781800034B984703006B
:1030D0001800BD4602B080BD1130000080B582B03E
:1030E00000AF78607B6800221A707B6801225A70FA
:1030F0007B6800229A70C046BD4602B080BD0000C9
:1031000080B584B000AF0200FB1D1A70BB1D0A1C05
:103110001A70FB1D1B7818000D4B98470300FB60CD
:10312000FB1D1B781F22134001229A401300BB6035
:10313000BB1D1B78002B03D0FB68BA689A6102E0C4
:10314000FB68BA685A61C046BD4604B080BDC0463F
:10315000B930000080B584B000AF78607B68A022F1
:1031600012011A807B6801229A707B680022DA7053
:103170007B6800221A710F23FB1800221A700EE0E0
:103180000F23FB181A787B68023292000021D1507D
:103190000F23FB181A780F23FB1801321A700F2324
:1031A000FB181B78012BEBD9C046BD4604B080BD8F
:1031B00080B584B000AF78607B681B68FB60FB68FB
:1031C000DB695A1E9341DBB21800BD4604B080BDD6
:1031D00080B582B000AF7860C0467B681800044BB1
:1031E0009847031EF9D1C046BD4602B080BDC04617
:1031F000B131000080B582B000AF78607B680022FA
:103200001A607B6800225A607B68FF221A817B6803
:1032100000229A727B680022DA727B689622920101
:103220001A627B682422012199547B68252201219E
:1032300099547B682622002199547B68272200211B
:1032400099547B6800229A627B6888225203DA6074
:103250007B682C22002199547B682D2200219954EF
:103260007B6800221A637B6800225A637B68002215
:103270009A637B680022DA637B6800225A617B686C
:103280000B4A1A827B680022DA767B6800221A7663
:103290007B6800221A777B6800225A767B681322AB
:1032A0009A767B6800225A77C046BD4602B080BD40
:1032B0000080FFFF80B584B000AF78607B681B683A
:1032C000FB607B681B681800094B984703001800D7
:1032D000084B98477B681800074B9847FB681B68AA
:1032E00002221A43FB681A60C046BD4604B080BD86
:1032F000AD1300008D300000D131000080B590B0DA
:1033000000AF3B001800174B98473B000022DA72D1
:103310003B0000225A603B009622D2011A623B0019
:10332000C4229203DA603B00012252421A633B003E
:10333000012252425A633B000B4A9A633B000B4AFC
:10334000DA63C0463A000A490A4B18000A4B98470C
:10335000031EF7D1074B1800084B9847C046BD46DF
:1033600010B080BDF531000003002A0003002B00DF
:1033700000180042AC01002055180000B5320000D2
:1033800090B587B000AF214B9847214B9847214B10
:103390001800214B98471F4B01221A701D4B190032
:1033A00008201E4B9847002108201D4B98471D4BB5
:1033B00098471D4B0022012118001C4B98471C4BBD
:1033C00098471C4B98470823FB181B4A13CA13C382
:1033D0001188198092789A700823F918174B0F22D8
:1033E0001800174B9847BA1D144B11001800154BC5
:1033F0009847031EF7D1C046BB1D1A880F4B11001A
:103400001800114B9847031EF6D1ECE7092D000078
:103410007130000070010020DD30000071060000F6
:10342000013100004D34000094010020E10A000049
:10343000ED340000FD32000068370000AC010020D0
:10344000011C00001F1B0000C91A000080B584B0D9
:1034500000AF3B0018000D4B98473B00A022120123
:103460001A803B0001229A703B0001221A713A0037
:103470000749084B1800084B9847064B1800074BA4
:103480009847C046BD4604B080BDC04655310000D7
:103490000014004094010020F1090000C907000059
:1034A00080B500AF0D4B1B78002B03D10B4B0122D5
:1034B0001A7002E0094B00221A70084B1B785A1E42
:1034C0009341DBB219000820054B9847054B0021BA
:1034D0001800054B9847C046BD4680BDD00000206F
:1034E0000131000094010020810A000080B500AF86
:1034F0000649074B00221800064B9847044B002151
:103500001800054B9847C046BD4680BDA134000059
:10351000940100206D0B0000190C000000224308EC
:103520008B4274D303098B425FD3030A8B4244D38B
:10353000030B8B4228D3030C8B420DD3FF220902CD
:1035400012BA030C8B4202D31212090265D0030B8C
:103550008B4219D300E0090AC30B8B4201D3CB0382
:10356000C01A5241830B8B4201D38B03C01A5241C4
:10357000430B8B4201D34B03C01A5241030B8B42C6
:1035800001D30B03C01A5241C30A8B4201D3CB02B1
:10359000C01A5241830A8B4201D38B02C01A524196
:1035A000430A8B4201D34B02C01A5241030A8B4299
:1035B00001D30B02C01A5241CDD2C3098B4201D3B1
:1035C000CB01C01A524183098B4201D38B01C01A2F
:1035D000524143098B4201D34B01C01A52410309A6
:1035E0008B4201D30B01C01A5241C3088B4201D355
:1035F000CB00C01A524183088B4201D38B00C01A02
:10360000524143088B4201D34B00C01A5241411A28
:1036100000D20146524110467047FFE701B5002035
:1036200000F006F802BDC0460029F7D076E77047E3
:103630007047C046F0B5CE46474615042D0C2E0007
:1036400080B50704140C3F0C9946030C7E435D4380
:10365000674363437F19340CE4199C46A54203D9A0
:1036600080235B029846C4444B465143434336048F
:10367000360C250C24046544A41959184919200056
:103680000CBC90469946F0BD70B500260C4D0D4C13
:10369000641BA410A64209D1002600F06DF80A4D63
:1036A0000A4C641BA410A64205D170BDB300EB58B0
:1036B00098470136EEE7B300EB5898470136F2E73A
:1036C000843700008437000084370000883700000A
:1036D00000080042000C00420010004200140042AA
:1036E00000180042001C0042090A0B0C0D0E0000DD
:1036F0004E220000C8220000C82200006C220000F8
:10370000662200007222000054220000782200008D
:10371000AE22000070240000C0240000C02400007D
:10372000BC24000062240000822400005224000017
:1037300094240000A6240000010000000200000004
:10374000040000000800000000100000002000003D
:1037500000400000008000000000010000000200A6
:10376000000004000000080048656C6C6F20576F73
:10377000726C64210D0A0000F8B5C046F8BC08BCA4
:103780009E467047DD000000F8B5C046F8BC08BC96
:083790009E467047B5000000E1
:04379800010000002C
:0400000300002F11B9
:00000001FF
